{
  "contractName": "Token",
  "abi": [
    {
      "inputs": [
        {
          "internalType": "string",
          "name": "name",
          "type": "string"
        },
        {
          "internalType": "string",
          "name": "symbol",
          "type": "string"
        }
      ],
      "stateMutability": "nonpayable",
      "type": "constructor"
    },
    {
      "anonymous": false,
      "inputs": [
        {
          "indexed": true,
          "internalType": "address",
          "name": "owner",
          "type": "address"
        },
        {
          "indexed": true,
          "internalType": "address",
          "name": "approved",
          "type": "address"
        },
        {
          "indexed": true,
          "internalType": "uint256",
          "name": "tokenId",
          "type": "uint256"
        }
      ],
      "name": "Approval",
      "type": "event"
    },
    {
      "anonymous": false,
      "inputs": [
        {
          "indexed": true,
          "internalType": "address",
          "name": "owner",
          "type": "address"
        },
        {
          "indexed": true,
          "internalType": "address",
          "name": "operator",
          "type": "address"
        },
        {
          "indexed": false,
          "internalType": "bool",
          "name": "approved",
          "type": "bool"
        }
      ],
      "name": "ApprovalForAll",
      "type": "event"
    },
    {
      "anonymous": false,
      "inputs": [
        {
          "indexed": true,
          "internalType": "address",
          "name": "previousOwner",
          "type": "address"
        },
        {
          "indexed": true,
          "internalType": "address",
          "name": "newOwner",
          "type": "address"
        }
      ],
      "name": "OwnershipTransferred",
      "type": "event"
    },
    {
      "anonymous": false,
      "inputs": [
        {
          "indexed": true,
          "internalType": "address",
          "name": "from",
          "type": "address"
        },
        {
          "indexed": true,
          "internalType": "address",
          "name": "to",
          "type": "address"
        },
        {
          "indexed": true,
          "internalType": "uint256",
          "name": "tokenId",
          "type": "uint256"
        }
      ],
      "name": "Transfer",
      "type": "event"
    },
    {
      "inputs": [
        {
          "internalType": "address",
          "name": "to",
          "type": "address"
        },
        {
          "internalType": "uint256",
          "name": "tokenId",
          "type": "uint256"
        }
      ],
      "name": "approve",
      "outputs": [],
      "stateMutability": "nonpayable",
      "type": "function"
    },
    {
      "inputs": [
        {
          "internalType": "address",
          "name": "owner",
          "type": "address"
        }
      ],
      "name": "balanceOf",
      "outputs": [
        {
          "internalType": "uint256",
          "name": "",
          "type": "uint256"
        }
      ],
      "stateMutability": "view",
      "type": "function",
      "constant": true
    },
    {
      "inputs": [
        {
          "internalType": "uint256",
          "name": "tokenId",
          "type": "uint256"
        }
      ],
      "name": "getApproved",
      "outputs": [
        {
          "internalType": "address",
          "name": "",
          "type": "address"
        }
      ],
      "stateMutability": "view",
      "type": "function",
      "constant": true
    },
    {
      "inputs": [
        {
          "internalType": "address",
          "name": "owner",
          "type": "address"
        },
        {
          "internalType": "address",
          "name": "operator",
          "type": "address"
        }
      ],
      "name": "isApprovedForAll",
      "outputs": [
        {
          "internalType": "bool",
          "name": "",
          "type": "bool"
        }
      ],
      "stateMutability": "view",
      "type": "function",
      "constant": true
    },
    {
      "inputs": [],
      "name": "name",
      "outputs": [
        {
          "internalType": "string",
          "name": "",
          "type": "string"
        }
      ],
      "stateMutability": "view",
      "type": "function",
      "constant": true
    },
    {
      "inputs": [],
      "name": "owner",
      "outputs": [
        {
          "internalType": "address",
          "name": "",
          "type": "address"
        }
      ],
      "stateMutability": "view",
      "type": "function",
      "constant": true
    },
    {
      "inputs": [
        {
          "internalType": "uint256",
          "name": "tokenId",
          "type": "uint256"
        }
      ],
      "name": "ownerOf",
      "outputs": [
        {
          "internalType": "address",
          "name": "",
          "type": "address"
        }
      ],
      "stateMutability": "view",
      "type": "function",
      "constant": true
    },
    {
      "inputs": [],
      "name": "renounceOwnership",
      "outputs": [],
      "stateMutability": "nonpayable",
      "type": "function"
    },
    {
      "inputs": [
        {
          "internalType": "address",
          "name": "from",
          "type": "address"
        },
        {
          "internalType": "address",
          "name": "to",
          "type": "address"
        },
        {
          "internalType": "uint256",
          "name": "tokenId",
          "type": "uint256"
        }
      ],
      "name": "safeTransferFrom",
      "outputs": [],
      "stateMutability": "nonpayable",
      "type": "function"
    },
    {
      "inputs": [
        {
          "internalType": "address",
          "name": "from",
          "type": "address"
        },
        {
          "internalType": "address",
          "name": "to",
          "type": "address"
        },
        {
          "internalType": "uint256",
          "name": "tokenId",
          "type": "uint256"
        },
        {
          "internalType": "bytes",
          "name": "_data",
          "type": "bytes"
        }
      ],
      "name": "safeTransferFrom",
      "outputs": [],
      "stateMutability": "nonpayable",
      "type": "function"
    },
    {
      "inputs": [
        {
          "internalType": "address",
          "name": "operator",
          "type": "address"
        },
        {
          "internalType": "bool",
          "name": "approved",
          "type": "bool"
        }
      ],
      "name": "setApprovalForAll",
      "outputs": [],
      "stateMutability": "nonpayable",
      "type": "function"
    },
    {
      "inputs": [
        {
          "internalType": "bytes4",
          "name": "interfaceId",
          "type": "bytes4"
        }
      ],
      "name": "supportsInterface",
      "outputs": [
        {
          "internalType": "bool",
          "name": "",
          "type": "bool"
        }
      ],
      "stateMutability": "view",
      "type": "function",
      "constant": true
    },
    {
      "inputs": [],
      "name": "symbol",
      "outputs": [
        {
          "internalType": "string",
          "name": "",
          "type": "string"
        }
      ],
      "stateMutability": "view",
      "type": "function",
      "constant": true
    },
    {
      "inputs": [
        {
          "internalType": "uint256",
          "name": "tokenId",
          "type": "uint256"
        }
      ],
      "name": "tokenURI",
      "outputs": [
        {
          "internalType": "string",
          "name": "",
          "type": "string"
        }
      ],
      "stateMutability": "view",
      "type": "function",
      "constant": true
    },
    {
      "inputs": [
        {
          "internalType": "address",
          "name": "from",
          "type": "address"
        },
        {
          "internalType": "address",
          "name": "to",
          "type": "address"
        },
        {
          "internalType": "uint256",
          "name": "tokenId",
          "type": "uint256"
        }
      ],
      "name": "transferFrom",
      "outputs": [],
      "stateMutability": "nonpayable",
      "type": "function"
    },
    {
      "inputs": [
        {
          "internalType": "address",
          "name": "newOwner",
          "type": "address"
        }
      ],
      "name": "transferOwnership",
      "outputs": [],
      "stateMutability": "nonpayable",
      "type": "function"
    },
    {
      "inputs": [
        {
          "internalType": "uint8",
          "name": "element",
          "type": "uint8"
        },
        {
          "internalType": "uint256",
          "name": "damage",
          "type": "uint256"
        },
        {
          "internalType": "uint256",
          "name": "defend",
          "type": "uint256"
        },
        {
          "internalType": "uint256",
          "name": "endurance",
          "type": "uint256"
        },
        {
          "internalType": "uint256",
          "name": "experience",
          "type": "uint256"
        },
        {
          "internalType": "uint256",
          "name": "level",
          "type": "uint256"
        },
        {
          "internalType": "uint8",
          "name": "isLock",
          "type": "uint8"
        }
      ],
      "name": "mint",
      "outputs": [],
      "stateMutability": "nonpayable",
      "type": "function"
    },
    {
      "inputs": [
        {
          "internalType": "uint256",
          "name": "tokenId",
          "type": "uint256"
        }
      ],
      "name": "getTokenDetails",
      "outputs": [
        {
          "components": [
            {
              "internalType": "uint8",
              "name": "element",
              "type": "uint8"
            },
            {
              "internalType": "uint256",
              "name": "damage",
              "type": "uint256"
            },
            {
              "internalType": "uint256",
              "name": "defend",
              "type": "uint256"
            },
            {
              "internalType": "uint256",
              "name": "lastMeal",
              "type": "uint256"
            },
            {
              "internalType": "uint256",
              "name": "endurance",
              "type": "uint256"
            },
            {
              "internalType": "uint256",
              "name": "experience",
              "type": "uint256"
            },
            {
              "internalType": "uint256",
              "name": "level",
              "type": "uint256"
            },
            {
              "internalType": "uint8",
              "name": "isLock",
              "type": "uint8"
            }
          ],
          "internalType": "struct Token.Pet",
          "name": "",
          "type": "tuple"
        }
      ],
      "stateMutability": "view",
      "type": "function",
      "constant": true
    },
    {
      "inputs": [],
      "name": "getAllTokens",
      "outputs": [
        {
          "components": [
            {
              "internalType": "uint8",
              "name": "element",
              "type": "uint8"
            },
            {
              "internalType": "uint256",
              "name": "damage",
              "type": "uint256"
            },
            {
              "internalType": "uint256",
              "name": "defend",
              "type": "uint256"
            },
            {
              "internalType": "uint256",
              "name": "lastMeal",
              "type": "uint256"
            },
            {
              "internalType": "uint256",
              "name": "endurance",
              "type": "uint256"
            },
            {
              "internalType": "uint256",
              "name": "experience",
              "type": "uint256"
            },
            {
              "internalType": "uint256",
              "name": "level",
              "type": "uint256"
            },
            {
              "internalType": "uint8",
              "name": "isLock",
              "type": "uint8"
            }
          ],
          "internalType": "struct Token.Pet[]",
          "name": "",
          "type": "tuple[]"
        }
      ],
      "stateMutability": "view",
      "type": "function",
      "constant": true
    },
    {
      "inputs": [
        {
          "internalType": "uint256",
          "name": "tokenId",
          "type": "uint256"
        }
      ],
      "name": "unLock",
      "outputs": [],
      "stateMutability": "nonpayable",
      "type": "function"
    },
    {
      "inputs": [
        {
          "internalType": "uint256",
          "name": "tokenId",
          "type": "uint256"
        },
        {
          "internalType": "uint256",
          "name": "exp",
          "type": "uint256"
        }
      ],
      "name": "receiveExperience",
      "outputs": [],
      "stateMutability": "nonpayable",
      "type": "function"
    },
    {
      "inputs": [
        {
          "internalType": "uint256",
          "name": "tokenId",
          "type": "uint256"
        }
      ],
      "name": "feed",
      "outputs": [],
      "stateMutability": "nonpayable",
      "type": "function"
    }
  ],
  "bytecode": "0x608060405260006007553480156200001657600080fd5b5060405162003bfd38038062003bfd83398181016040528101906200003c9190620002f7565b818181600090816200004f9190620005c7565b508060019081620000619190620005c7565b50505062000084620000786200008c60201b60201c565b6200009460201b60201c565b5050620006ae565b600033905090565b6000600660009054906101000a900473ffffffffffffffffffffffffffffffffffffffff16905081600660006101000a81548173ffffffffffffffffffffffffffffffffffffffff021916908373ffffffffffffffffffffffffffffffffffffffff1602179055508173ffffffffffffffffffffffffffffffffffffffff168173ffffffffffffffffffffffffffffffffffffffff167f8be0079c531659141344cd1fd0a4f28419497f9722a3daafe3b4186f6b6457e060405160405180910390a35050565b6000604051905090565b600080fd5b600080fd5b600080fd5b600080fd5b6000601f19601f8301169050919050565b7f4e487b7100000000000000000000000000000000000000000000000000000000600052604160045260246000fd5b620001c38262000178565b810181811067ffffffffffffffff82111715620001e557620001e462000189565b5b80604052505050565b6000620001fa6200015a565b9050620002088282620001b8565b919050565b600067ffffffffffffffff8211156200022b576200022a62000189565b5b620002368262000178565b9050602081019050919050565b60005b838110156200026357808201518184015260208101905062000246565b8381111562000273576000848401525b50505050565b6000620002906200028a846200020d565b620001ee565b905082815260208101848484011115620002af57620002ae62000173565b5b620002bc84828562000243565b509392505050565b600082601f830112620002dc57620002db6200016e565b5b8151620002ee84826020860162000279565b91505092915050565b6000806040838503121562000311576200031062000164565b5b600083015167ffffffffffffffff81111562000332576200033162000169565b5b6200034085828601620002c4565b925050602083015167ffffffffffffffff81111562000364576200036362000169565b5b6200037285828601620002c4565b9150509250929050565b600081519050919050565b7f4e487b7100000000000000000000000000000000000000000000000000000000600052602260045260246000fd5b60006002820490506001821680620003cf57607f821691505b602082108103620003e557620003e462000387565b5b50919050565b60008190508160005260206000209050919050565b60006020601f8301049050919050565b600082821b905092915050565b6000600883026200044f7fffffffffffffffffffffffffffffffffffffffffffffffffffffffffffffffff8262000410565b6200045b868362000410565b95508019841693508086168417925050509392505050565b6000819050919050565b6000819050919050565b6000620004a8620004a26200049c8462000473565b6200047d565b62000473565b9050919050565b6000819050919050565b620004c48362000487565b620004dc620004d382620004af565b8484546200041d565b825550505050565b600090565b620004f3620004e4565b62000500818484620004b9565b505050565b5b8181101562000528576200051c600082620004e9565b60018101905062000506565b5050565b601f82111562000577576200054181620003eb565b6200054c8462000400565b810160208510156200055c578190505b620005746200056b8562000400565b83018262000505565b50505b505050565b600082821c905092915050565b60006200059c600019846008026200057c565b1980831691505092915050565b6000620005b7838362000589565b9150826002028217905092915050565b620005d2826200037c565b67ffffffffffffffff811115620005ee57620005ed62000189565b5b620005fa8254620003b6565b620006078282856200052c565b600060209050601f8311600181146200063f57600084156200062a578287015190505b620006368582620005a9565b865550620006a6565b601f1984166200064f86620003eb565b60005b82811015620006795784890151825560018201915060208501945060208101905062000652565b8683101562000699578489015162000695601f89168262000589565b8355505b6001600288020188555050505b505050505050565b61353f80620006be6000396000f3fe608060405234801561001057600080fd5b50600436106101425760003560e01c806370a08231116100b8578063b88d4fde1161007c578063b88d4fde1461034d578063c1e0372814610369578063c87b56dd14610399578063e985e9c5146103c9578063f2fde38b146103f9578063f59dfdfb1461041557610142565b806370a08231146102bb578063715018a6146102eb5780638da5cb5b146102f557806395d89b4114610313578063a22cb4651461033157610142565b806316f6208d1161010a57806316f6208d146101fd57806323b872dd146102195780632a5c792a1461023557806342842e0e146102535780636352211e1461026f5780636489284e1461029f57610142565b806301ffc9a71461014757806302d6aee11461017757806306fdde0314610193578063081812fc146101b1578063095ea7b3146101e1575b600080fd5b610161600480360381019061015c9190612001565b610431565b60405161016e9190612049565b60405180910390f35b610191600480360381019061018c919061209a565b610513565b005b61019b61056d565b6040516101a89190612160565b60405180910390f35b6101cb60048036038101906101c6919061209a565b6105ff565b6040516101d891906121c3565b60405180910390f35b6101fb60048036038101906101f6919061220a565b610684565b005b61021760048036038101906102129190612283565b61079b565b005b610233600480360381019061022e9190612325565b61091a565b005b61023d61097a565b60405161024a91906124e8565b60405180910390f35b61026d60048036038101906102689190612325565b610b18565b005b6102896004803603810190610284919061209a565b610b38565b60405161029691906121c3565b60405180910390f35b6102b960048036038101906102b4919061250a565b610be9565b005b6102d560048036038101906102d0919061254a565b610cb8565b6040516102e29190612586565b60405180910390f35b6102f3610d6f565b005b6102fd610df7565b60405161030a91906121c3565b60405180910390f35b61031b610e21565b6040516103289190612160565b60405180910390f35b61034b600480360381019061034691906125cd565b610eb3565b005b61036760048036038101906103629190612742565b610ec9565b005b610383600480360381019061037e919061209a565b610f2b565b6040516103909190612867565b60405180910390f35b6103b360048036038101906103ae919061209a565b610fcf565b6040516103c09190612160565b60405180910390f35b6103e360048036038101906103de9190612883565b611076565b6040516103f09190612049565b60405180910390f35b610413600480360381019061040e919061254a565b61110a565b005b61042f600480360381019061042a919061209a565b611201565b005b60007f80ac58cd000000000000000000000000000000000000000000000000000000007bffffffffffffffffffffffffffffffffffffffffffffffffffffffff1916827bffffffffffffffffffffffffffffffffffffffffffffffffffffffff191614806104fc57507f5b5e139f000000000000000000000000000000000000000000000000000000007bffffffffffffffffffffffffffffffffffffffffffffffffffffffff1916827bffffffffffffffffffffffffffffffffffffffffffffffffffffffff1916145b8061050c575061050b82611264565b5b9050919050565b600060086000838152602001908152602001600020905060018160070160009054906101000a900460ff1660ff161461054b57600080fd5b60008160070160006101000a81548160ff021916908360ff1602179055505050565b60606000805461057c906128f2565b80601f01602080910402602001604051908101604052809291908181526020018280546105a8906128f2565b80156105f55780601f106105ca576101008083540402835291602001916105f5565b820191906000526020600020905b8154815290600101906020018083116105d857829003601f168201915b5050505050905090565b600061060a826112ce565b610649576040517f08c379a000000000000000000000000000000000000000000000000000000000815260040161064090612995565b60405180910390fd5b6004600083815260200190815260200160002060009054906101000a900473ffffffffffffffffffffffffffffffffffffffff169050919050565b600061068f82610b38565b90508073ffffffffffffffffffffffffffffffffffffffff168373ffffffffffffffffffffffffffffffffffffffff16036106ff576040517f08c379a00000000000000000000000000000000000000000000000000000000081526004016106f690612a27565b60405180910390fd5b8073ffffffffffffffffffffffffffffffffffffffff1661071e61133a565b73ffffffffffffffffffffffffffffffffffffffff16148061074d575061074c8161074761133a565b611076565b5b61078c576040517f08c379a000000000000000000000000000000000000000000000000000000000815260040161078390612ab9565b60405180910390fd5b6107968383611342565b505050565b6107a361133a565b73ffffffffffffffffffffffffffffffffffffffff166107c1610df7565b73ffffffffffffffffffffffffffffffffffffffff1614610817576040517f08c379a000000000000000000000000000000000000000000000000000000000815260040161080e90612b25565b60405180910390fd5b610823336007546113fb565b6040518061010001604052808860ff1681526020018781526020018681526020014281526020018581526020018481526020018381526020018260ff1681525060086000600754815260200190815260200160002060008201518160000160006101000a81548160ff021916908360ff1602179055506020820151816001015560408201518160020155606082015181600301556080820151816004015560a0820151816005015560c0820151816006015560e08201518160070160006101000a81548160ff021916908360ff1602179055509050506007600081548092919061090c90612b74565b919050555050505050505050565b61092b61092561133a565b82611419565b61096a576040517f08c379a000000000000000000000000000000000000000000000000000000000815260040161096190612c2e565b60405180910390fd5b6109758383836114f7565b505050565b60606000600754036109e257600067ffffffffffffffff8111156109a1576109a0612617565b5b6040519080825280602002602001820160405280156109da57816020015b6109c7611f4a565b8152602001906001900390816109bf5790505b509050610b15565b600060075467ffffffffffffffff811115610a00576109ff612617565b5b604051908082528060200260200182016040528015610a3957816020015b610a26611f4a565b815260200190600190039081610a1e5790505b50905060005b600754811015610b0f5760086000828152602001908152602001600020604051806101000160405290816000820160009054906101000a900460ff1660ff1660ff1681526020016001820154815260200160028201548152602001600382015481526020016004820154815260200160058201548152602001600682015481526020016007820160009054906101000a900460ff1660ff1660ff1681525050828281518110610af157610af0612c4e565b5b60200260200101819052508080610b0790612b74565b915050610a3f565b50809150505b90565b610b3383838360405180602001604052806000815250610ec9565b505050565b6000806002600084815260200190815260200160002060009054906101000a900473ffffffffffffffffffffffffffffffffffffffff169050600073ffffffffffffffffffffffffffffffffffffffff168173ffffffffffffffffffffffffffffffffffffffff1603610be0576040517f08c379a0000000000000000000000000000000000000000000000000000000008152600401610bd790612cef565b60405180910390fd5b80915050919050565b600060086000848152602001908152602001600020905060008160070160009054906101000a900460ff1660ff1614610c2157600080fd5b81816005016000828254610c359190612d0f565b925050819055505b600115610cb35780600601546064610c559190612d65565b816005015410610ca95780600601546064610c709190612d65565b816005016000828254610c839190612dbf565b92505081905550806006016000815480929190610c9f90612b74565b9190505550610cae565b610cb3565b610c3d565b505050565b60008073ffffffffffffffffffffffffffffffffffffffff168273ffffffffffffffffffffffffffffffffffffffff1603610d28576040517f08c379a0000000000000000000000000000000000000000000000000000000008152600401610d1f90612e65565b60405180910390fd5b600360008373ffffffffffffffffffffffffffffffffffffffff1673ffffffffffffffffffffffffffffffffffffffff168152602001908152602001600020549050919050565b610d7761133a565b73ffffffffffffffffffffffffffffffffffffffff16610d95610df7565b73ffffffffffffffffffffffffffffffffffffffff1614610deb576040517f08c379a0000000000000000000000000000000000000000000000000000000008152600401610de290612b25565b60405180910390fd5b610df5600061175d565b565b6000600660009054906101000a900473ffffffffffffffffffffffffffffffffffffffff16905090565b606060018054610e30906128f2565b80601f0160208091040260200160405190810160405280929190818152602001828054610e5c906128f2565b8015610ea95780601f10610e7e57610100808354040283529160200191610ea9565b820191906000526020600020905b815481529060010190602001808311610e8c57829003601f168201915b5050505050905090565b610ec5610ebe61133a565b8383611823565b5050565b610eda610ed461133a565b83611419565b610f19576040517f08c379a0000000000000000000000000000000000000000000000000000000008152600401610f1090612c2e565b60405180910390fd5b610f258484848461198f565b50505050565b610f33611f4a565b60086000838152602001908152602001600020604051806101000160405290816000820160009054906101000a900460ff1660ff1660ff1681526020016001820154815260200160028201548152602001600382015481526020016004820154815260200160058201548152602001600682015481526020016007820160009054906101000a900460ff1660ff1660ff16815250509050919050565b6060610fda826112ce565b611019576040517f08c379a000000000000000000000000000000000000000000000000000000000815260040161101090612ef7565b60405180910390fd5b60006110236119eb565b90506000815111611043576040518060200160405280600081525061106e565b8061104d84611a02565b60405160200161105e929190612f53565b6040516020818303038152906040525b915050919050565b6000600560008473ffffffffffffffffffffffffffffffffffffffff1673ffffffffffffffffffffffffffffffffffffffff16815260200190815260200160002060008373ffffffffffffffffffffffffffffffffffffffff1673ffffffffffffffffffffffffffffffffffffffff16815260200190815260200160002060009054906101000a900460ff16905092915050565b61111261133a565b73ffffffffffffffffffffffffffffffffffffffff16611130610df7565b73ffffffffffffffffffffffffffffffffffffffff1614611186576040517f08c379a000000000000000000000000000000000000000000000000000000000815260040161117d90612b25565b60405180910390fd5b600073ffffffffffffffffffffffffffffffffffffffff168173ffffffffffffffffffffffffffffffffffffffff16036111f5576040517f08c379a00000000000000000000000000000000000000000000000000000000081526004016111ec90612fe9565b60405180910390fd5b6111fe8161175d565b50565b600060086000838152602001908152602001600020905060008160070160009054906101000a900460ff1660ff1614801561124e5750428160040154826003015461124c9190612d0f565b115b61125757600080fd5b4281600301819055505050565b60007f01ffc9a7000000000000000000000000000000000000000000000000000000007bffffffffffffffffffffffffffffffffffffffffffffffffffffffff1916827bffffffffffffffffffffffffffffffffffffffffffffffffffffffff1916149050919050565b60008073ffffffffffffffffffffffffffffffffffffffff166002600084815260200190815260200160002060009054906101000a900473ffffffffffffffffffffffffffffffffffffffff1673ffffffffffffffffffffffffffffffffffffffff1614159050919050565b600033905090565b816004600083815260200190815260200160002060006101000a81548173ffffffffffffffffffffffffffffffffffffffff021916908373ffffffffffffffffffffffffffffffffffffffff160217905550808273ffffffffffffffffffffffffffffffffffffffff166113b583610b38565b73ffffffffffffffffffffffffffffffffffffffff167f8c5be1e5ebec7d5bd14f71427d1e84f3dd0314c0f7b2291e5b200ac8c7c3b92560405160405180910390a45050565b611415828260405180602001604052806000815250611b62565b5050565b6000611424826112ce565b611463576040517f08c379a000000000000000000000000000000000000000000000000000000000815260040161145a9061307b565b60405180910390fd5b600061146e83610b38565b90508073ffffffffffffffffffffffffffffffffffffffff168473ffffffffffffffffffffffffffffffffffffffff1614806114b057506114af8185611076565b5b806114ee57508373ffffffffffffffffffffffffffffffffffffffff166114d6846105ff565b73ffffffffffffffffffffffffffffffffffffffff16145b91505092915050565b8273ffffffffffffffffffffffffffffffffffffffff1661151782610b38565b73ffffffffffffffffffffffffffffffffffffffff161461156d576040517f08c379a00000000000000000000000000000000000000000000000000000000081526004016115649061310d565b60405180910390fd5b600073ffffffffffffffffffffffffffffffffffffffff168273ffffffffffffffffffffffffffffffffffffffff16036115dc576040517f08c379a00000000000000000000000000000000000000000000000000000000081526004016115d39061319f565b60405180910390fd5b6115e7838383611bbd565b6115f2600082611342565b6001600360008573ffffffffffffffffffffffffffffffffffffffff1673ffffffffffffffffffffffffffffffffffffffff16815260200190815260200160002060008282546116429190612dbf565b925050819055506001600360008473ffffffffffffffffffffffffffffffffffffffff1673ffffffffffffffffffffffffffffffffffffffff16815260200190815260200160002060008282546116999190612d0f565b92505081905550816002600083815260200190815260200160002060006101000a81548173ffffffffffffffffffffffffffffffffffffffff021916908373ffffffffffffffffffffffffffffffffffffffff160217905550808273ffffffffffffffffffffffffffffffffffffffff168473ffffffffffffffffffffffffffffffffffffffff167fddf252ad1be2c89b69c2b068fc378daa952ba7f163c4a11628f55a4df523b3ef60405160405180910390a4611758838383611bc2565b505050565b6000600660009054906101000a900473ffffffffffffffffffffffffffffffffffffffff16905081600660006101000a81548173ffffffffffffffffffffffffffffffffffffffff021916908373ffffffffffffffffffffffffffffffffffffffff1602179055508173ffffffffffffffffffffffffffffffffffffffff168173ffffffffffffffffffffffffffffffffffffffff167f8be0079c531659141344cd1fd0a4f28419497f9722a3daafe3b4186f6b6457e060405160405180910390a35050565b8173ffffffffffffffffffffffffffffffffffffffff168373ffffffffffffffffffffffffffffffffffffffff1603611891576040517f08c379a00000000000000000000000000000000000000000000000000000000081526004016118889061320b565b60405180910390fd5b80600560008573ffffffffffffffffffffffffffffffffffffffff1673ffffffffffffffffffffffffffffffffffffffff16815260200190815260200160002060008473ffffffffffffffffffffffffffffffffffffffff1673ffffffffffffffffffffffffffffffffffffffff16815260200190815260200160002060006101000a81548160ff0219169083151502179055508173ffffffffffffffffffffffffffffffffffffffff168373ffffffffffffffffffffffffffffffffffffffff167f17307eab39ab6107e8899845ad3d59bd9653f200f220920489ca2b5937696c31836040516119829190612049565b60405180910390a3505050565b61199a8484846114f7565b6119a684848484611bc7565b6119e5576040517f08c379a00000000000000000000000000000000000000000000000000000000081526004016119dc9061329d565b60405180910390fd5b50505050565b606060405180602001604052806000815250905090565b606060008203611a49576040518060400160405280600181526020017f30000000000000000000000000000000000000000000000000000000000000008152509050611b5d565b600082905060005b60008214611a7b578080611a6490612b74565b915050600a82611a7491906132ec565b9150611a51565b60008167ffffffffffffffff811115611a9757611a96612617565b5b6040519080825280601f01601f191660200182016040528015611ac95781602001600182028036833780820191505090505b5090505b60008514611b5657600182611ae29190612dbf565b9150600a85611af1919061331d565b6030611afd9190612d0f565b60f81b818381518110611b1357611b12612c4e565b5b60200101907effffffffffffffffffffffffffffffffffffffffffffffffffffffffffffff1916908160001a905350600a85611b4f91906132ec565b9450611acd565b8093505050505b919050565b611b6c8383611d4e565b611b796000848484611bc7565b611bb8576040517f08c379a0000000000000000000000000000000000000000000000000000000008152600401611baf9061329d565b60405180910390fd5b505050565b505050565b505050565b6000611be88473ffffffffffffffffffffffffffffffffffffffff16611f27565b15611d41578373ffffffffffffffffffffffffffffffffffffffff1663150b7a02611c1161133a565b8786866040518563ffffffff1660e01b8152600401611c3394939291906133a3565b6020604051808303816000875af1925050508015611c6f57506040513d601f19601f82011682018060405250810190611c6c9190613404565b60015b611cf1573d8060008114611c9f576040519150601f19603f3d011682016040523d82523d6000602084013e611ca4565b606091505b506000815103611ce9576040517f08c379a0000000000000000000000000000000000000000000000000000000008152600401611ce09061329d565b60405180910390fd5b805181602001fd5b63150b7a0260e01b7bffffffffffffffffffffffffffffffffffffffffffffffffffffffff1916817bffffffffffffffffffffffffffffffffffffffffffffffffffffffff191614915050611d46565b600190505b949350505050565b600073ffffffffffffffffffffffffffffffffffffffff168273ffffffffffffffffffffffffffffffffffffffff1603611dbd576040517f08c379a0000000000000000000000000000000000000000000000000000000008152600401611db49061347d565b60405180910390fd5b611dc6816112ce565b15611e06576040517f08c379a0000000000000000000000000000000000000000000000000000000008152600401611dfd906134e9565b60405180910390fd5b611e1260008383611bbd565b6001600360008473ffffffffffffffffffffffffffffffffffffffff1673ffffffffffffffffffffffffffffffffffffffff1681526020019081526020016000206000828254611e629190612d0f565b92505081905550816002600083815260200190815260200160002060006101000a81548173ffffffffffffffffffffffffffffffffffffffff021916908373ffffffffffffffffffffffffffffffffffffffff160217905550808273ffffffffffffffffffffffffffffffffffffffff16600073ffffffffffffffffffffffffffffffffffffffff167fddf252ad1be2c89b69c2b068fc378daa952ba7f163c4a11628f55a4df523b3ef60405160405180910390a4611f2360008383611bc2565b5050565b6000808273ffffffffffffffffffffffffffffffffffffffff163b119050919050565b604051806101000160405280600060ff168152602001600081526020016000815260200160008152602001600081526020016000815260200160008152602001600060ff1681525090565b6000604051905090565b600080fd5b600080fd5b60007fffffffff0000000000000000000000000000000000000000000000000000000082169050919050565b611fde81611fa9565b8114611fe957600080fd5b50565b600081359050611ffb81611fd5565b92915050565b60006020828403121561201757612016611f9f565b5b600061202584828501611fec565b91505092915050565b60008115159050919050565b6120438161202e565b82525050565b600060208201905061205e600083018461203a565b92915050565b6000819050919050565b61207781612064565b811461208257600080fd5b50565b6000813590506120948161206e565b92915050565b6000602082840312156120b0576120af611f9f565b5b60006120be84828501612085565b91505092915050565b600081519050919050565b600082825260208201905092915050565b60005b838110156121015780820151818401526020810190506120e6565b83811115612110576000848401525b50505050565b6000601f19601f8301169050919050565b6000612132826120c7565b61213c81856120d2565b935061214c8185602086016120e3565b61215581612116565b840191505092915050565b6000602082019050818103600083015261217a8184612127565b905092915050565b600073ffffffffffffffffffffffffffffffffffffffff82169050919050565b60006121ad82612182565b9050919050565b6121bd816121a2565b82525050565b60006020820190506121d860008301846121b4565b92915050565b6121e7816121a2565b81146121f257600080fd5b50565b600081359050612204816121de565b92915050565b6000806040838503121561222157612220611f9f565b5b600061222f858286016121f5565b925050602061224085828601612085565b9150509250929050565b600060ff82169050919050565b6122608161224a565b811461226b57600080fd5b50565b60008135905061227d81612257565b92915050565b600080600080600080600060e0888a0312156122a2576122a1611f9f565b5b60006122b08a828b0161226e565b97505060206122c18a828b01612085565b96505060406122d28a828b01612085565b95505060606122e38a828b01612085565b94505060806122f48a828b01612085565b93505060a06123058a828b01612085565b92505060c06123168a828b0161226e565b91505092959891949750929550565b60008060006060848603121561233e5761233d611f9f565b5b600061234c868287016121f5565b935050602061235d868287016121f5565b925050604061236e86828701612085565b9150509250925092565b600081519050919050565b600082825260208201905092915050565b6000819050602082019050919050565b6123ad8161224a565b82525050565b6123bc81612064565b82525050565b610100820160008201516123d960008501826123a4565b5060208201516123ec60208501826123b3565b5060408201516123ff60408501826123b3565b50606082015161241260608501826123b3565b50608082015161242560808501826123b3565b5060a082015161243860a08501826123b3565b5060c082015161244b60c08501826123b3565b5060e082015161245e60e08501826123a4565b50505050565b600061247083836123c2565b6101008301905092915050565b6000602082019050919050565b600061249582612378565b61249f8185612383565b93506124aa83612394565b8060005b838110156124db5781516124c28882612464565b97506124cd8361247d565b9250506001810190506124ae565b5085935050505092915050565b60006020820190508181036000830152612502818461248a565b905092915050565b6000806040838503121561252157612520611f9f565b5b600061252f85828601612085565b925050602061254085828601612085565b9150509250929050565b6000602082840312156125605761255f611f9f565b5b600061256e848285016121f5565b91505092915050565b61258081612064565b82525050565b600060208201905061259b6000830184612577565b92915050565b6125aa8161202e565b81146125b557600080fd5b50565b6000813590506125c7816125a1565b92915050565b600080604083850312156125e4576125e3611f9f565b5b60006125f2858286016121f5565b9250506020612603858286016125b8565b9150509250929050565b600080fd5b600080fd5b7f4e487b7100000000000000000000000000000000000000000000000000000000600052604160045260246000fd5b61264f82612116565b810181811067ffffffffffffffff8211171561266e5761266d612617565b5b80604052505050565b6000612681611f95565b905061268d8282612646565b919050565b600067ffffffffffffffff8211156126ad576126ac612617565b5b6126b682612116565b9050602081019050919050565b82818337600083830152505050565b60006126e56126e084612692565b612677565b90508281526020810184848401111561270157612700612612565b5b61270c8482856126c3565b509392505050565b600082601f8301126127295761272861260d565b5b81356127398482602086016126d2565b91505092915050565b6000806000806080858703121561275c5761275b611f9f565b5b600061276a878288016121f5565b945050602061277b878288016121f5565b935050604061278c87828801612085565b925050606085013567ffffffffffffffff8111156127ad576127ac611fa4565b5b6127b987828801612714565b91505092959194509250565b610100820160008201516127dc60008501826123a4565b5060208201516127ef60208501826123b3565b50604082015161280260408501826123b3565b50606082015161281560608501826123b3565b50608082015161282860808501826123b3565b5060a082015161283b60a08501826123b3565b5060c082015161284e60c08501826123b3565b5060e082015161286160e08501826123a4565b50505050565b60006101008201905061287d60008301846127c5565b92915050565b6000806040838503121561289a57612899611f9f565b5b60006128a8858286016121f5565b92505060206128b9858286016121f5565b9150509250929050565b7f4e487b7100000000000000000000000000000000000000000000000000000000600052602260045260246000fd5b6000600282049050600182168061290a57607f821691505b60208210810361291d5761291c6128c3565b5b50919050565b7f4552433732313a20617070726f76656420717565727920666f72206e6f6e657860008201527f697374656e7420746f6b656e0000000000000000000000000000000000000000602082015250565b600061297f602c836120d2565b915061298a82612923565b604082019050919050565b600060208201905081810360008301526129ae81612972565b9050919050565b7f4552433732313a20617070726f76616c20746f2063757272656e74206f776e6560008201527f7200000000000000000000000000000000000000000000000000000000000000602082015250565b6000612a116021836120d2565b9150612a1c826129b5565b604082019050919050565b60006020820190508181036000830152612a4081612a04565b9050919050565b7f4552433732313a20617070726f76652063616c6c6572206973206e6f74206f7760008201527f6e6572206e6f7220617070726f76656420666f7220616c6c0000000000000000602082015250565b6000612aa36038836120d2565b9150612aae82612a47565b604082019050919050565b60006020820190508181036000830152612ad281612a96565b9050919050565b7f4f776e61626c653a2063616c6c6572206973206e6f7420746865206f776e6572600082015250565b6000612b0f6020836120d2565b9150612b1a82612ad9565b602082019050919050565b60006020820190508181036000830152612b3e81612b02565b9050919050565b7f4e487b7100000000000000000000000000000000000000000000000000000000600052601160045260246000fd5b6000612b7f82612064565b91507fffffffffffffffffffffffffffffffffffffffffffffffffffffffffffffffff8203612bb157612bb0612b45565b5b600182019050919050565b7f4552433732313a207472616e736665722063616c6c6572206973206e6f74206f60008201527f776e6572206e6f7220617070726f766564000000000000000000000000000000602082015250565b6000612c186031836120d2565b9150612c2382612bbc565b604082019050919050565b60006020820190508181036000830152612c4781612c0b565b9050919050565b7f4e487b7100000000000000000000000000000000000000000000000000000000600052603260045260246000fd5b7f4552433732313a206f776e657220717565727920666f72206e6f6e657869737460008201527f656e7420746f6b656e0000000000000000000000000000000000000000000000602082015250565b6000612cd96029836120d2565b9150612ce482612c7d565b604082019050919050565b60006020820190508181036000830152612d0881612ccc565b9050919050565b6000612d1a82612064565b9150612d2583612064565b9250827fffffffffffffffffffffffffffffffffffffffffffffffffffffffffffffffff03821115612d5a57612d59612b45565b5b828201905092915050565b6000612d7082612064565b9150612d7b83612064565b9250817fffffffffffffffffffffffffffffffffffffffffffffffffffffffffffffffff0483118215151615612db457612db3612b45565b5b828202905092915050565b6000612dca82612064565b9150612dd583612064565b925082821015612de857612de7612b45565b5b828203905092915050565b7f4552433732313a2062616c616e636520717565727920666f7220746865207a6560008201527f726f206164647265737300000000000000000000000000000000000000000000602082015250565b6000612e4f602a836120d2565b9150612e5a82612df3565b604082019050919050565b60006020820190508181036000830152612e7e81612e42565b9050919050565b7f4552433732314d657461646174613a2055524920717565727920666f72206e6f60008201527f6e6578697374656e7420746f6b656e0000000000000000000000000000000000602082015250565b6000612ee1602f836120d2565b9150612eec82612e85565b604082019050919050565b60006020820190508181036000830152612f1081612ed4565b9050919050565b600081905092915050565b6000612f2d826120c7565b612f378185612f17565b9350612f478185602086016120e3565b80840191505092915050565b6000612f5f8285612f22565b9150612f6b8284612f22565b91508190509392505050565b7f4f776e61626c653a206e6577206f776e657220697320746865207a65726f206160008201527f6464726573730000000000000000000000000000000000000000000000000000602082015250565b6000612fd36026836120d2565b9150612fde82612f77565b604082019050919050565b6000602082019050818103600083015261300281612fc6565b9050919050565b7f4552433732313a206f70657261746f7220717565727920666f72206e6f6e657860008201527f697374656e7420746f6b656e0000000000000000000000000000000000000000602082015250565b6000613065602c836120d2565b915061307082613009565b604082019050919050565b6000602082019050818103600083015261309481613058565b9050919050565b7f4552433732313a207472616e736665722066726f6d20696e636f72726563742060008201527f6f776e6572000000000000000000000000000000000000000000000000000000602082015250565b60006130f76025836120d2565b91506131028261309b565b604082019050919050565b60006020820190508181036000830152613126816130ea565b9050919050565b7f4552433732313a207472616e7366657220746f20746865207a65726f2061646460008201527f7265737300000000000000000000000000000000000000000000000000000000602082015250565b60006131896024836120d2565b91506131948261312d565b604082019050919050565b600060208201905081810360008301526131b88161317c565b9050919050565b7f4552433732313a20617070726f766520746f2063616c6c657200000000000000600082015250565b60006131f56019836120d2565b9150613200826131bf565b602082019050919050565b60006020820190508181036000830152613224816131e8565b9050919050565b7f4552433732313a207472616e7366657220746f206e6f6e20455243373231526560008201527f63656976657220696d706c656d656e7465720000000000000000000000000000602082015250565b60006132876032836120d2565b91506132928261322b565b604082019050919050565b600060208201905081810360008301526132b68161327a565b9050919050565b7f4e487b7100000000000000000000000000000000000000000000000000000000600052601260045260246000fd5b60006132f782612064565b915061330283612064565b925082613312576133116132bd565b5b828204905092915050565b600061332882612064565b915061333383612064565b925082613343576133426132bd565b5b828206905092915050565b600081519050919050565b600082825260208201905092915050565b60006133758261334e565b61337f8185613359565b935061338f8185602086016120e3565b61339881612116565b840191505092915050565b60006080820190506133b860008301876121b4565b6133c560208301866121b4565b6133d26040830185612577565b81810360608301526133e4818461336a565b905095945050505050565b6000815190506133fe81611fd5565b92915050565b60006020828403121561341a57613419611f9f565b5b6000613428848285016133ef565b91505092915050565b7f4552433732313a206d696e7420746f20746865207a65726f2061646472657373600082015250565b60006134676020836120d2565b915061347282613431565b602082019050919050565b600060208201905081810360008301526134968161345a565b9050919050565b7f4552433732313a20746f6b656e20616c7265616479206d696e74656400000000600082015250565b60006134d3601c836120d2565b91506134de8261349d565b602082019050919050565b60006020820190508181036000830152613502816134c6565b905091905056fea26469706673582212201cf28e1cb3ccdddd17b9103745544d262412ba9eda5305a2257bf5df418ec52764736f6c634300080f0033",
  "immutableReferences": {},
  "source": "//SPDX-License-Identifier: UNLICENSED\r\npragma solidity 0.8.15;\r\n\r\nimport \"../node_modules/@openzeppelin/contracts/token/ERC721/ERC721.sol\";\r\nimport \"../node_modules/@openzeppelin/contracts/access/Ownable.sol\";\r\n\r\ncontract Token is ERC721, Ownable {\r\n    struct Pet {\r\n        uint8 element;\r\n        uint256 damage;\r\n        uint256 defend;\r\n        uint256 lastMeal;\r\n        uint256 endurance;\r\n        uint256 experience;\r\n        uint256 level;\r\n        uint8 isLock;\r\n    }\r\n\r\n    uint256 nextId = 0;\r\n\r\n    mapping(uint256 => Pet) private _tokenDetails;\r\n\r\n    constructor(string memory name, string memory symbol)\r\n        ERC721(name, symbol)\r\n    {}\r\n\r\n    function mint(\r\n        uint8 element,\r\n        uint256 damage,\r\n        uint256 defend,\r\n        uint256 endurance,\r\n        uint256 experience,\r\n        uint256 level,\r\n        uint8 isLock\r\n    ) public onlyOwner {\r\n        _safeMint(msg.sender, nextId);\r\n\r\n        _tokenDetails[nextId] = Pet(\r\n            element,\r\n            damage,\r\n            defend,\r\n            block.timestamp,\r\n            endurance,\r\n            experience,\r\n            level,\r\n            isLock\r\n        );\r\n        nextId++;\r\n    }\r\n\r\n    function getTokenDetails(uint256 tokenId) public view returns (Pet memory) {\r\n        return _tokenDetails[tokenId];\r\n    }\r\n\r\n    function getAllTokens() public view returns (Pet[] memory) {\r\n        if (nextId == 0) {\r\n            return new Pet[](0);\r\n        } else {\r\n            Pet[] memory result = new Pet[](nextId);\r\n\r\n            for (uint256 index = 0; index < nextId; index++) {\r\n                result[index] = _tokenDetails[index];\r\n            }\r\n            return result;\r\n        }\r\n    }\r\n\r\n    function unLock(uint256 tokenId) public {\r\n        Pet storage pet = _tokenDetails[tokenId];\r\n        require(pet.isLock == 1);\r\n        pet.isLock = 0;\r\n    }\r\n\r\n    function receiveExperience(uint256 tokenId, uint256 exp) public {\r\n        Pet storage pet = _tokenDetails[tokenId];\r\n        require(pet.isLock == 0);\r\n        pet.experience += exp;\r\n\r\n        while (true) {\r\n            if (pet.experience >= 100 * pet.level) {\r\n                pet.experience -= 100 * pet.level;\r\n                pet.level++;\r\n            } else {\r\n                break;\r\n            }\r\n        }\r\n    }\r\n\r\n    function feed(uint256 tokenId) public {\r\n        Pet storage pet = _tokenDetails[tokenId];\r\n        require(\r\n            pet.isLock == 0 && pet.lastMeal + pet.endurance > block.timestamp\r\n        );\r\n        pet.lastMeal = block.timestamp;\r\n    }\r\n\r\n    // function _beforeTokenTransfer(\r\n    //     address from,\r\n    //     address to,\r\n    //     uint256 tokenId\r\n    // ) internal override {\r\n    //     Pet storage pet = _tokenDetails[tokenId];\r\n    //     require(pet.lastMeal + pet.endurance > block.timestamp);\r\n    // }\r\n}\r\n",
  "sourcePath": "C:\\Users\\XV11\\Documents\\School\\CNM\\NTFGAME\\contracts\\Token.sol",
  "compiler": {
    "name": "solc",
    "version": "0.8.15+commit.e14f2714.Emscripten.clang"
  },
  "schemaVersion": "3.4.7",
  "updatedAt": "2022-07-07T15:16:19.348Z",
  "networkType": "ethereum",
  "devdoc": {
    "kind": "dev",
    "methods": {
      "approve(address,uint256)": {
        "details": "See {IERC721-approve}."
      },
      "balanceOf(address)": {
        "details": "See {IERC721-balanceOf}."
      },
      "getApproved(uint256)": {
        "details": "See {IERC721-getApproved}."
      },
      "isApprovedForAll(address,address)": {
        "details": "See {IERC721-isApprovedForAll}."
      },
      "name()": {
        "details": "See {IERC721Metadata-name}."
      },
      "owner()": {
        "details": "Returns the address of the current owner."
      },
      "ownerOf(uint256)": {
        "details": "See {IERC721-ownerOf}."
      },
      "renounceOwnership()": {
        "details": "Leaves the contract without owner. It will not be possible to call `onlyOwner` functions anymore. Can only be called by the current owner. NOTE: Renouncing ownership will leave the contract without an owner, thereby removing any functionality that is only available to the owner."
      },
      "safeTransferFrom(address,address,uint256)": {
        "details": "See {IERC721-safeTransferFrom}."
      },
      "safeTransferFrom(address,address,uint256,bytes)": {
        "details": "See {IERC721-safeTransferFrom}."
      },
      "setApprovalForAll(address,bool)": {
        "details": "See {IERC721-setApprovalForAll}."
      },
      "supportsInterface(bytes4)": {
        "details": "See {IERC165-supportsInterface}."
      },
      "symbol()": {
        "details": "See {IERC721Metadata-symbol}."
      },
      "tokenURI(uint256)": {
        "details": "See {IERC721Metadata-tokenURI}."
      },
      "transferFrom(address,address,uint256)": {
        "details": "See {IERC721-transferFrom}."
      },
      "transferOwnership(address)": {
        "details": "Transfers ownership of the contract to a new account (`newOwner`). Can only be called by the current owner."
      }
    },
    "version": 1
  },
  "userdoc": {
    "kind": "user",
    "methods": {},
    "version": 1
  }
}