{
  "contractName": "Token",
  "abi": [
    {
      "inputs": [
        {
          "internalType": "string",
          "name": "name",
          "type": "string"
        },
        {
          "internalType": "string",
          "name": "symbol",
          "type": "string"
        }
      ],
      "stateMutability": "nonpayable",
      "type": "constructor"
    },
    {
      "anonymous": false,
      "inputs": [
        {
          "indexed": true,
          "internalType": "address",
          "name": "owner",
          "type": "address"
        },
        {
          "indexed": true,
          "internalType": "address",
          "name": "approved",
          "type": "address"
        },
        {
          "indexed": true,
          "internalType": "uint256",
          "name": "tokenId",
          "type": "uint256"
        }
      ],
      "name": "Approval",
      "type": "event"
    },
    {
      "anonymous": false,
      "inputs": [
        {
          "indexed": true,
          "internalType": "address",
          "name": "owner",
          "type": "address"
        },
        {
          "indexed": true,
          "internalType": "address",
          "name": "operator",
          "type": "address"
        },
        {
          "indexed": false,
          "internalType": "bool",
          "name": "approved",
          "type": "bool"
        }
      ],
      "name": "ApprovalForAll",
      "type": "event"
    },
    {
      "anonymous": false,
      "inputs": [
        {
          "indexed": true,
          "internalType": "address",
          "name": "previousOwner",
          "type": "address"
        },
        {
          "indexed": true,
          "internalType": "address",
          "name": "newOwner",
          "type": "address"
        }
      ],
      "name": "OwnershipTransferred",
      "type": "event"
    },
    {
      "anonymous": false,
      "inputs": [
        {
          "indexed": true,
          "internalType": "address",
          "name": "from",
          "type": "address"
        },
        {
          "indexed": true,
          "internalType": "address",
          "name": "to",
          "type": "address"
        },
        {
          "indexed": true,
          "internalType": "uint256",
          "name": "tokenId",
          "type": "uint256"
        }
      ],
      "name": "Transfer",
      "type": "event"
    },
    {
      "inputs": [
        {
          "internalType": "address",
          "name": "to",
          "type": "address"
        },
        {
          "internalType": "uint256",
          "name": "tokenId",
          "type": "uint256"
        }
      ],
      "name": "approve",
      "outputs": [],
      "stateMutability": "nonpayable",
      "type": "function"
    },
    {
      "inputs": [
        {
          "internalType": "address",
          "name": "owner",
          "type": "address"
        }
      ],
      "name": "balanceOf",
      "outputs": [
        {
          "internalType": "uint256",
          "name": "",
          "type": "uint256"
        }
      ],
      "stateMutability": "view",
      "type": "function",
      "constant": true
    },
    {
      "inputs": [
        {
          "internalType": "uint256",
          "name": "tokenId",
          "type": "uint256"
        }
      ],
      "name": "getApproved",
      "outputs": [
        {
          "internalType": "address",
          "name": "",
          "type": "address"
        }
      ],
      "stateMutability": "view",
      "type": "function",
      "constant": true
    },
    {
      "inputs": [
        {
          "internalType": "address",
          "name": "owner",
          "type": "address"
        },
        {
          "internalType": "address",
          "name": "operator",
          "type": "address"
        }
      ],
      "name": "isApprovedForAll",
      "outputs": [
        {
          "internalType": "bool",
          "name": "",
          "type": "bool"
        }
      ],
      "stateMutability": "view",
      "type": "function",
      "constant": true
    },
    {
      "inputs": [],
      "name": "name",
      "outputs": [
        {
          "internalType": "string",
          "name": "",
          "type": "string"
        }
      ],
      "stateMutability": "view",
      "type": "function",
      "constant": true
    },
    {
      "inputs": [],
      "name": "owner",
      "outputs": [
        {
          "internalType": "address",
          "name": "",
          "type": "address"
        }
      ],
      "stateMutability": "view",
      "type": "function",
      "constant": true
    },
    {
      "inputs": [
        {
          "internalType": "uint256",
          "name": "tokenId",
          "type": "uint256"
        }
      ],
      "name": "ownerOf",
      "outputs": [
        {
          "internalType": "address",
          "name": "",
          "type": "address"
        }
      ],
      "stateMutability": "view",
      "type": "function",
      "constant": true
    },
    {
      "inputs": [],
      "name": "renounceOwnership",
      "outputs": [],
      "stateMutability": "nonpayable",
      "type": "function"
    },
    {
      "inputs": [
        {
          "internalType": "address",
          "name": "from",
          "type": "address"
        },
        {
          "internalType": "address",
          "name": "to",
          "type": "address"
        },
        {
          "internalType": "uint256",
          "name": "tokenId",
          "type": "uint256"
        }
      ],
      "name": "safeTransferFrom",
      "outputs": [],
      "stateMutability": "nonpayable",
      "type": "function"
    },
    {
      "inputs": [
        {
          "internalType": "address",
          "name": "from",
          "type": "address"
        },
        {
          "internalType": "address",
          "name": "to",
          "type": "address"
        },
        {
          "internalType": "uint256",
          "name": "tokenId",
          "type": "uint256"
        },
        {
          "internalType": "bytes",
          "name": "_data",
          "type": "bytes"
        }
      ],
      "name": "safeTransferFrom",
      "outputs": [],
      "stateMutability": "nonpayable",
      "type": "function"
    },
    {
      "inputs": [
        {
          "internalType": "address",
          "name": "operator",
          "type": "address"
        },
        {
          "internalType": "bool",
          "name": "approved",
          "type": "bool"
        }
      ],
      "name": "setApprovalForAll",
      "outputs": [],
      "stateMutability": "nonpayable",
      "type": "function"
    },
    {
      "inputs": [
        {
          "internalType": "bytes4",
          "name": "interfaceId",
          "type": "bytes4"
        }
      ],
      "name": "supportsInterface",
      "outputs": [
        {
          "internalType": "bool",
          "name": "",
          "type": "bool"
        }
      ],
      "stateMutability": "view",
      "type": "function",
      "constant": true
    },
    {
      "inputs": [],
      "name": "symbol",
      "outputs": [
        {
          "internalType": "string",
          "name": "",
          "type": "string"
        }
      ],
      "stateMutability": "view",
      "type": "function",
      "constant": true
    },
    {
      "inputs": [
        {
          "internalType": "uint256",
          "name": "tokenId",
          "type": "uint256"
        }
      ],
      "name": "tokenURI",
      "outputs": [
        {
          "internalType": "string",
          "name": "",
          "type": "string"
        }
      ],
      "stateMutability": "view",
      "type": "function",
      "constant": true
    },
    {
      "inputs": [
        {
          "internalType": "address",
          "name": "from",
          "type": "address"
        },
        {
          "internalType": "address",
          "name": "to",
          "type": "address"
        },
        {
          "internalType": "uint256",
          "name": "tokenId",
          "type": "uint256"
        }
      ],
      "name": "transferFrom",
      "outputs": [],
      "stateMutability": "nonpayable",
      "type": "function"
    },
    {
      "inputs": [
        {
          "internalType": "address",
          "name": "newOwner",
          "type": "address"
        }
      ],
      "name": "transferOwnership",
      "outputs": [],
      "stateMutability": "nonpayable",
      "type": "function"
    },
    {
      "inputs": [
        {
          "internalType": "uint256",
          "name": "tokenId",
          "type": "uint256"
        }
      ],
      "name": "getTokenDetails",
      "outputs": [
        {
          "components": [
            {
              "internalType": "uint256",
              "name": "damage",
              "type": "uint256"
            },
            {
              "internalType": "uint256",
              "name": "magic",
              "type": "uint256"
            },
            {
              "internalType": "uint256",
              "name": "lastMeal",
              "type": "uint256"
            },
            {
              "internalType": "uint256",
              "name": "endurance",
              "type": "uint256"
            }
          ],
          "internalType": "struct Token.Pet",
          "name": "",
          "type": "tuple"
        }
      ],
      "stateMutability": "view",
      "type": "function",
      "constant": true
    },
    {
      "inputs": [
        {
          "internalType": "uint256",
          "name": "damage",
          "type": "uint256"
        },
        {
          "internalType": "uint256",
          "name": "magic",
          "type": "uint256"
        },
        {
          "internalType": "uint256",
          "name": "endurance",
          "type": "uint256"
        }
      ],
      "name": "mint",
      "outputs": [],
      "stateMutability": "nonpayable",
      "type": "function"
    },
    {
      "inputs": [],
      "name": "feed",
      "outputs": [],
      "stateMutability": "nonpayable",
      "type": "function"
    },
    {
      "inputs": [
        {
          "internalType": "address",
          "name": "user",
          "type": "address"
        }
      ],
      "name": "getAllTokensForUser",
      "outputs": [
        {
          "internalType": "uint256[]",
          "name": "",
          "type": "uint256[]"
        }
      ],
      "stateMutability": "view",
      "type": "function",
      "constant": true
    }
  ],
  "bytecode": "0x608060405260006007553480156200001657600080fd5b50604051620037103803806200371083398181016040528101906200003c9190620002f7565b818181600090816200004f9190620005c7565b508060019081620000619190620005c7565b50505062000084620000786200008c60201b60201c565b6200009460201b60201c565b5050620006ae565b600033905090565b6000600660009054906101000a900473ffffffffffffffffffffffffffffffffffffffff16905081600660006101000a81548173ffffffffffffffffffffffffffffffffffffffff021916908373ffffffffffffffffffffffffffffffffffffffff1602179055508173ffffffffffffffffffffffffffffffffffffffff168173ffffffffffffffffffffffffffffffffffffffff167f8be0079c531659141344cd1fd0a4f28419497f9722a3daafe3b4186f6b6457e060405160405180910390a35050565b6000604051905090565b600080fd5b600080fd5b600080fd5b600080fd5b6000601f19601f8301169050919050565b7f4e487b7100000000000000000000000000000000000000000000000000000000600052604160045260246000fd5b620001c38262000178565b810181811067ffffffffffffffff82111715620001e557620001e462000189565b5b80604052505050565b6000620001fa6200015a565b9050620002088282620001b8565b919050565b600067ffffffffffffffff8211156200022b576200022a62000189565b5b620002368262000178565b9050602081019050919050565b60005b838110156200026357808201518184015260208101905062000246565b8381111562000273576000848401525b50505050565b6000620002906200028a846200020d565b620001ee565b905082815260208101848484011115620002af57620002ae62000173565b5b620002bc84828562000243565b509392505050565b600082601f830112620002dc57620002db6200016e565b5b8151620002ee84826020860162000279565b91505092915050565b6000806040838503121562000311576200031062000164565b5b600083015167ffffffffffffffff81111562000332576200033162000169565b5b6200034085828601620002c4565b925050602083015167ffffffffffffffff81111562000364576200036362000169565b5b6200037285828601620002c4565b9150509250929050565b600081519050919050565b7f4e487b7100000000000000000000000000000000000000000000000000000000600052602260045260246000fd5b60006002820490506001821680620003cf57607f821691505b602082108103620003e557620003e462000387565b5b50919050565b60008190508160005260206000209050919050565b60006020601f8301049050919050565b600082821b905092915050565b6000600883026200044f7fffffffffffffffffffffffffffffffffffffffffffffffffffffffffffffffff8262000410565b6200045b868362000410565b95508019841693508086168417925050509392505050565b6000819050919050565b6000819050919050565b6000620004a8620004a26200049c8462000473565b6200047d565b62000473565b9050919050565b6000819050919050565b620004c48362000487565b620004dc620004d382620004af565b8484546200041d565b825550505050565b600090565b620004f3620004e4565b62000500818484620004b9565b505050565b5b8181101562000528576200051c600082620004e9565b60018101905062000506565b5050565b601f82111562000577576200054181620003eb565b6200054c8462000400565b810160208510156200055c578190505b620005746200056b8562000400565b83018262000505565b50505b505050565b600082821c905092915050565b60006200059c600019846008026200057c565b1980831691505092915050565b6000620005b7838362000589565b9150826002028217905092915050565b620005d2826200037c565b67ffffffffffffffff811115620005ee57620005ed62000189565b5b620005fa8254620003b6565b620006078282856200052c565b600060209050601f8311600181146200063f57600084156200062a578287015190505b620006368582620005a9565b865550620006a6565b601f1984166200064f86620003eb565b60005b82811015620006795784890151825560018201915060208501945060208101905062000652565b8683101562000699578489015162000695601f89168262000589565b8355505b6001600288020188555050505b505050505050565b61305280620006be6000396000f3fe608060405234801561001057600080fd5b506004361061012c5760003560e01c8063715018a6116100ad578063b88d4fde11610071578063b88d4fde1461031b578063c1e0372814610337578063c87b56dd14610367578063e985e9c514610397578063f2fde38b146103c75761012c565b8063715018a61461028957806382de8fe9146102935780638da5cb5b146102c357806395d89b41146102e1578063a22cb465146102ff5761012c565b806323b872dd116100f457806323b872dd146101e757806337a7b7d81461020357806342842e0e1461020d5780636352211e1461022957806370a08231146102595761012c565b806301ffc9a71461013157806302acc94b1461016157806306fdde031461017d578063081812fc1461019b578063095ea7b3146101cb575b600080fd5b61014b60048036038101906101469190611d36565b6103e3565b6040516101589190611d7e565b60405180910390f35b61017b60048036038101906101769190611dcf565b6104c5565b005b6101856105cb565b6040516101929190611ebb565b60405180910390f35b6101b560048036038101906101b09190611edd565b61065d565b6040516101c29190611f4b565b60405180910390f35b6101e560048036038101906101e09190611f92565b6106e2565b005b61020160048036038101906101fc9190611fd2565b6107f9565b005b61020b610859565b005b61022760048036038101906102229190611fd2565b61089d565b005b610243600480360381019061023e9190611edd565b6108bd565b6040516102509190611f4b565b60405180910390f35b610273600480360381019061026e9190612025565b61096e565b6040516102809190612061565b60405180910390f35b610291610a25565b005b6102ad60048036038101906102a89190612025565b610aad565b6040516102ba919061213a565b60405180910390f35b6102cb610c01565b6040516102d89190611f4b565b60405180910390f35b6102e9610c2b565b6040516102f69190611ebb565b60405180910390f35b61031960048036038101906103149190612188565b610cbd565b005b610335600480360381019061033091906122fd565b610cd3565b005b610351600480360381019061034c9190611edd565b610d35565b60405161035e91906123d5565b60405180910390f35b610381600480360381019061037c9190611edd565b610d8a565b60405161038e9190611ebb565b60405180910390f35b6103b160048036038101906103ac91906123f0565b610e31565b6040516103be9190611d7e565b60405180910390f35b6103e160048036038101906103dc9190612025565b610ec5565b005b60007f80ac58cd000000000000000000000000000000000000000000000000000000007bffffffffffffffffffffffffffffffffffffffffffffffffffffffff1916827bffffffffffffffffffffffffffffffffffffffffffffffffffffffff191614806104ae57507f5b5e139f000000000000000000000000000000000000000000000000000000007bffffffffffffffffffffffffffffffffffffffffffffffffffffffff1916827bffffffffffffffffffffffffffffffffffffffffffffffffffffffff1916145b806104be57506104bd82610fbc565b5b9050919050565b6104cd611026565b73ffffffffffffffffffffffffffffffffffffffff166104eb610c01565b73ffffffffffffffffffffffffffffffffffffffff1614610541576040517f08c379a00000000000000000000000000000000000000000000000000000000081526004016105389061247c565b60405180910390fd5b61054d3360075461102e565b60405180608001604052808481526020018381526020014281526020018281525060086000600754815260200190815260200160002060008201518160000155602082015181600101556040820151816002015560608201518160030155905050600760008154809291906105c1906124cb565b9190505550505050565b6060600080546105da90612542565b80601f016020809104026020016040519081016040528092919081815260200182805461060690612542565b80156106535780601f1061062857610100808354040283529160200191610653565b820191906000526020600020905b81548152906001019060200180831161063657829003601f168201915b5050505050905090565b60006106688261104c565b6106a7576040517f08c379a000000000000000000000000000000000000000000000000000000000815260040161069e906125e5565b60405180910390fd5b6004600083815260200190815260200160002060009054906101000a900473ffffffffffffffffffffffffffffffffffffffff169050919050565b60006106ed826108bd565b90508073ffffffffffffffffffffffffffffffffffffffff168373ffffffffffffffffffffffffffffffffffffffff160361075d576040517f08c379a000000000000000000000000000000000000000000000000000000000815260040161075490612677565b60405180910390fd5b8073ffffffffffffffffffffffffffffffffffffffff1661077c611026565b73ffffffffffffffffffffffffffffffffffffffff1614806107ab57506107aa816107a5611026565b610e31565b5b6107ea576040517f08c379a00000000000000000000000000000000000000000000000000000000081526004016107e190612709565b60405180910390fd5b6107f483836110b8565b505050565b61080a610804611026565b82611171565b610849576040517f08c379a00000000000000000000000000000000000000000000000000000000081526004016108409061279b565b60405180910390fd5b61085483838361124f565b505050565b60006008600060075481526020019081526020016000209050428160030154826002015461088791906127bb565b1161089157600080fd5b42816002018190555050565b6108b883838360405180602001604052806000815250610cd3565b505050565b6000806002600084815260200190815260200160002060009054906101000a900473ffffffffffffffffffffffffffffffffffffffff169050600073ffffffffffffffffffffffffffffffffffffffff168173ffffffffffffffffffffffffffffffffffffffff1603610965576040517f08c379a000000000000000000000000000000000000000000000000000000000815260040161095c90612883565b60405180910390fd5b80915050919050565b60008073ffffffffffffffffffffffffffffffffffffffff168273ffffffffffffffffffffffffffffffffffffffff16036109de576040517f08c379a00000000000000000000000000000000000000000000000000000000081526004016109d590612915565b60405180910390fd5b600360008373ffffffffffffffffffffffffffffffffffffffff1673ffffffffffffffffffffffffffffffffffffffff168152602001908152602001600020549050919050565b610a2d611026565b73ffffffffffffffffffffffffffffffffffffffff16610a4b610c01565b73ffffffffffffffffffffffffffffffffffffffff1614610aa1576040517f08c379a0000000000000000000000000000000000000000000000000000000008152600401610a989061247c565b60405180910390fd5b610aab60006114b5565b565b60606000610aba8361096e565b905060008103610b1657600067ffffffffffffffff811115610adf57610ade6121d2565b5b604051908082528060200260200182016040528015610b0d5781602001602082028036833780820191505090505b50915050610bfc565b60008167ffffffffffffffff811115610b3257610b316121d2565b5b604051908082528060200260200182016040528015610b605781602001602082028036833780820191505090505b509050600060075490506000805b82811015610bf3578673ffffffffffffffffffffffffffffffffffffffff16610b96826108bd565b73ffffffffffffffffffffffffffffffffffffffff1603610be05780848381518110610bc557610bc4612935565b5b6020026020010181815250508180610bdc906124cb565b9250505b8080610beb906124cb565b915050610b6e565b50829450505050505b919050565b6000600660009054906101000a900473ffffffffffffffffffffffffffffffffffffffff16905090565b606060018054610c3a90612542565b80601f0160208091040260200160405190810160405280929190818152602001828054610c6690612542565b8015610cb35780601f10610c8857610100808354040283529160200191610cb3565b820191906000526020600020905b815481529060010190602001808311610c9657829003601f168201915b5050505050905090565b610ccf610cc8611026565b838361157b565b5050565b610ce4610cde611026565b83611171565b610d23576040517f08c379a0000000000000000000000000000000000000000000000000000000008152600401610d1a9061279b565b60405180910390fd5b610d2f848484846116e7565b50505050565b610d3d611ca2565b600860008381526020019081526020016000206040518060800160405290816000820154815260200160018201548152602001600282015481526020016003820154815250509050919050565b6060610d958261104c565b610dd4576040517f08c379a0000000000000000000000000000000000000000000000000000000008152600401610dcb906129d6565b60405180910390fd5b6000610dde611743565b90506000815111610dfe5760405180602001604052806000815250610e29565b80610e088461175a565b604051602001610e19929190612a32565b6040516020818303038152906040525b915050919050565b6000600560008473ffffffffffffffffffffffffffffffffffffffff1673ffffffffffffffffffffffffffffffffffffffff16815260200190815260200160002060008373ffffffffffffffffffffffffffffffffffffffff1673ffffffffffffffffffffffffffffffffffffffff16815260200190815260200160002060009054906101000a900460ff16905092915050565b610ecd611026565b73ffffffffffffffffffffffffffffffffffffffff16610eeb610c01565b73ffffffffffffffffffffffffffffffffffffffff1614610f41576040517f08c379a0000000000000000000000000000000000000000000000000000000008152600401610f389061247c565b60405180910390fd5b600073ffffffffffffffffffffffffffffffffffffffff168173ffffffffffffffffffffffffffffffffffffffff1603610fb0576040517f08c379a0000000000000000000000000000000000000000000000000000000008152600401610fa790612ac8565b60405180910390fd5b610fb9816114b5565b50565b60007f01ffc9a7000000000000000000000000000000000000000000000000000000007bffffffffffffffffffffffffffffffffffffffffffffffffffffffff1916827bffffffffffffffffffffffffffffffffffffffffffffffffffffffff1916149050919050565b600033905090565b6110488282604051806020016040528060008152506118ba565b5050565b60008073ffffffffffffffffffffffffffffffffffffffff166002600084815260200190815260200160002060009054906101000a900473ffffffffffffffffffffffffffffffffffffffff1673ffffffffffffffffffffffffffffffffffffffff1614159050919050565b816004600083815260200190815260200160002060006101000a81548173ffffffffffffffffffffffffffffffffffffffff021916908373ffffffffffffffffffffffffffffffffffffffff160217905550808273ffffffffffffffffffffffffffffffffffffffff1661112b836108bd565b73ffffffffffffffffffffffffffffffffffffffff167f8c5be1e5ebec7d5bd14f71427d1e84f3dd0314c0f7b2291e5b200ac8c7c3b92560405160405180910390a45050565b600061117c8261104c565b6111bb576040517f08c379a00000000000000000000000000000000000000000000000000000000081526004016111b290612b5a565b60405180910390fd5b60006111c6836108bd565b90508073ffffffffffffffffffffffffffffffffffffffff168473ffffffffffffffffffffffffffffffffffffffff16148061120857506112078185610e31565b5b8061124657508373ffffffffffffffffffffffffffffffffffffffff1661122e8461065d565b73ffffffffffffffffffffffffffffffffffffffff16145b91505092915050565b8273ffffffffffffffffffffffffffffffffffffffff1661126f826108bd565b73ffffffffffffffffffffffffffffffffffffffff16146112c5576040517f08c379a00000000000000000000000000000000000000000000000000000000081526004016112bc90612bec565b60405180910390fd5b600073ffffffffffffffffffffffffffffffffffffffff168273ffffffffffffffffffffffffffffffffffffffff1603611334576040517f08c379a000000000000000000000000000000000000000000000000000000000815260040161132b90612c7e565b60405180910390fd5b61133f838383611915565b61134a6000826110b8565b6001600360008573ffffffffffffffffffffffffffffffffffffffff1673ffffffffffffffffffffffffffffffffffffffff168152602001908152602001600020600082825461139a9190612c9e565b925050819055506001600360008473ffffffffffffffffffffffffffffffffffffffff1673ffffffffffffffffffffffffffffffffffffffff16815260200190815260200160002060008282546113f191906127bb565b92505081905550816002600083815260200190815260200160002060006101000a81548173ffffffffffffffffffffffffffffffffffffffff021916908373ffffffffffffffffffffffffffffffffffffffff160217905550808273ffffffffffffffffffffffffffffffffffffffff168473ffffffffffffffffffffffffffffffffffffffff167fddf252ad1be2c89b69c2b068fc378daa952ba7f163c4a11628f55a4df523b3ef60405160405180910390a46114b083838361191a565b505050565b6000600660009054906101000a900473ffffffffffffffffffffffffffffffffffffffff16905081600660006101000a81548173ffffffffffffffffffffffffffffffffffffffff021916908373ffffffffffffffffffffffffffffffffffffffff1602179055508173ffffffffffffffffffffffffffffffffffffffff168173ffffffffffffffffffffffffffffffffffffffff167f8be0079c531659141344cd1fd0a4f28419497f9722a3daafe3b4186f6b6457e060405160405180910390a35050565b8173ffffffffffffffffffffffffffffffffffffffff168373ffffffffffffffffffffffffffffffffffffffff16036115e9576040517f08c379a00000000000000000000000000000000000000000000000000000000081526004016115e090612d1e565b60405180910390fd5b80600560008573ffffffffffffffffffffffffffffffffffffffff1673ffffffffffffffffffffffffffffffffffffffff16815260200190815260200160002060008473ffffffffffffffffffffffffffffffffffffffff1673ffffffffffffffffffffffffffffffffffffffff16815260200190815260200160002060006101000a81548160ff0219169083151502179055508173ffffffffffffffffffffffffffffffffffffffff168373ffffffffffffffffffffffffffffffffffffffff167f17307eab39ab6107e8899845ad3d59bd9653f200f220920489ca2b5937696c31836040516116da9190611d7e565b60405180910390a3505050565b6116f284848461124f565b6116fe8484848461191f565b61173d576040517f08c379a000000000000000000000000000000000000000000000000000000000815260040161173490612db0565b60405180910390fd5b50505050565b606060405180602001604052806000815250905090565b6060600082036117a1576040518060400160405280600181526020017f300000000000000000000000000000000000000000000000000000000000000081525090506118b5565b600082905060005b600082146117d35780806117bc906124cb565b915050600a826117cc9190612dff565b91506117a9565b60008167ffffffffffffffff8111156117ef576117ee6121d2565b5b6040519080825280601f01601f1916602001820160405280156118215781602001600182028036833780820191505090505b5090505b600085146118ae5760018261183a9190612c9e565b9150600a856118499190612e30565b603061185591906127bb565b60f81b81838151811061186b5761186a612935565b5b60200101907effffffffffffffffffffffffffffffffffffffffffffffffffffffffffffff1916908160001a905350600a856118a79190612dff565b9450611825565b8093505050505b919050565b6118c48383611aa6565b6118d1600084848461191f565b611910576040517f08c379a000000000000000000000000000000000000000000000000000000000815260040161190790612db0565b60405180910390fd5b505050565b505050565b505050565b60006119408473ffffffffffffffffffffffffffffffffffffffff16611c7f565b15611a99578373ffffffffffffffffffffffffffffffffffffffff1663150b7a02611969611026565b8786866040518563ffffffff1660e01b815260040161198b9493929190612eb6565b6020604051808303816000875af19250505080156119c757506040513d601f19601f820116820180604052508101906119c49190612f17565b60015b611a49573d80600081146119f7576040519150601f19603f3d011682016040523d82523d6000602084013e6119fc565b606091505b506000815103611a41576040517f08c379a0000000000000000000000000000000000000000000000000000000008152600401611a3890612db0565b60405180910390fd5b805181602001fd5b63150b7a0260e01b7bffffffffffffffffffffffffffffffffffffffffffffffffffffffff1916817bffffffffffffffffffffffffffffffffffffffffffffffffffffffff191614915050611a9e565b600190505b949350505050565b600073ffffffffffffffffffffffffffffffffffffffff168273ffffffffffffffffffffffffffffffffffffffff1603611b15576040517f08c379a0000000000000000000000000000000000000000000000000000000008152600401611b0c90612f90565b60405180910390fd5b611b1e8161104c565b15611b5e576040517f08c379a0000000000000000000000000000000000000000000000000000000008152600401611b5590612ffc565b60405180910390fd5b611b6a60008383611915565b6001600360008473ffffffffffffffffffffffffffffffffffffffff1673ffffffffffffffffffffffffffffffffffffffff1681526020019081526020016000206000828254611bba91906127bb565b92505081905550816002600083815260200190815260200160002060006101000a81548173ffffffffffffffffffffffffffffffffffffffff021916908373ffffffffffffffffffffffffffffffffffffffff160217905550808273ffffffffffffffffffffffffffffffffffffffff16600073ffffffffffffffffffffffffffffffffffffffff167fddf252ad1be2c89b69c2b068fc378daa952ba7f163c4a11628f55a4df523b3ef60405160405180910390a4611c7b6000838361191a565b5050565b6000808273ffffffffffffffffffffffffffffffffffffffff163b119050919050565b6040518060800160405280600081526020016000815260200160008152602001600081525090565b6000604051905090565b600080fd5b600080fd5b60007fffffffff0000000000000000000000000000000000000000000000000000000082169050919050565b611d1381611cde565b8114611d1e57600080fd5b50565b600081359050611d3081611d0a565b92915050565b600060208284031215611d4c57611d4b611cd4565b5b6000611d5a84828501611d21565b91505092915050565b60008115159050919050565b611d7881611d63565b82525050565b6000602082019050611d936000830184611d6f565b92915050565b6000819050919050565b611dac81611d99565b8114611db757600080fd5b50565b600081359050611dc981611da3565b92915050565b600080600060608486031215611de857611de7611cd4565b5b6000611df686828701611dba565b9350506020611e0786828701611dba565b9250506040611e1886828701611dba565b9150509250925092565b600081519050919050565b600082825260208201905092915050565b60005b83811015611e5c578082015181840152602081019050611e41565b83811115611e6b576000848401525b50505050565b6000601f19601f8301169050919050565b6000611e8d82611e22565b611e978185611e2d565b9350611ea7818560208601611e3e565b611eb081611e71565b840191505092915050565b60006020820190508181036000830152611ed58184611e82565b905092915050565b600060208284031215611ef357611ef2611cd4565b5b6000611f0184828501611dba565b91505092915050565b600073ffffffffffffffffffffffffffffffffffffffff82169050919050565b6000611f3582611f0a565b9050919050565b611f4581611f2a565b82525050565b6000602082019050611f606000830184611f3c565b92915050565b611f6f81611f2a565b8114611f7a57600080fd5b50565b600081359050611f8c81611f66565b92915050565b60008060408385031215611fa957611fa8611cd4565b5b6000611fb785828601611f7d565b9250506020611fc885828601611dba565b9150509250929050565b600080600060608486031215611feb57611fea611cd4565b5b6000611ff986828701611f7d565b935050602061200a86828701611f7d565b925050604061201b86828701611dba565b9150509250925092565b60006020828403121561203b5761203a611cd4565b5b600061204984828501611f7d565b91505092915050565b61205b81611d99565b82525050565b60006020820190506120766000830184612052565b92915050565b600081519050919050565b600082825260208201905092915050565b6000819050602082019050919050565b6120b181611d99565b82525050565b60006120c383836120a8565b60208301905092915050565b6000602082019050919050565b60006120e78261207c565b6120f18185612087565b93506120fc83612098565b8060005b8381101561212d57815161211488826120b7565b975061211f836120cf565b925050600181019050612100565b5085935050505092915050565b6000602082019050818103600083015261215481846120dc565b905092915050565b61216581611d63565b811461217057600080fd5b50565b6000813590506121828161215c565b92915050565b6000806040838503121561219f5761219e611cd4565b5b60006121ad85828601611f7d565b92505060206121be85828601612173565b9150509250929050565b600080fd5b600080fd5b7f4e487b7100000000000000000000000000000000000000000000000000000000600052604160045260246000fd5b61220a82611e71565b810181811067ffffffffffffffff82111715612229576122286121d2565b5b80604052505050565b600061223c611cca565b90506122488282612201565b919050565b600067ffffffffffffffff821115612268576122676121d2565b5b61227182611e71565b9050602081019050919050565b82818337600083830152505050565b60006122a061229b8461224d565b612232565b9050828152602081018484840111156122bc576122bb6121cd565b5b6122c784828561227e565b509392505050565b600082601f8301126122e4576122e36121c8565b5b81356122f484826020860161228d565b91505092915050565b6000806000806080858703121561231757612316611cd4565b5b600061232587828801611f7d565b945050602061233687828801611f7d565b935050604061234787828801611dba565b925050606085013567ffffffffffffffff81111561236857612367611cd9565b5b612374878288016122cf565b91505092959194509250565b60808201600082015161239660008501826120a8565b5060208201516123a960208501826120a8565b5060408201516123bc60408501826120a8565b5060608201516123cf60608501826120a8565b50505050565b60006080820190506123ea6000830184612380565b92915050565b6000806040838503121561240757612406611cd4565b5b600061241585828601611f7d565b925050602061242685828601611f7d565b9150509250929050565b7f4f776e61626c653a2063616c6c6572206973206e6f7420746865206f776e6572600082015250565b6000612466602083611e2d565b915061247182612430565b602082019050919050565b6000602082019050818103600083015261249581612459565b9050919050565b7f4e487b7100000000000000000000000000000000000000000000000000000000600052601160045260246000fd5b60006124d682611d99565b91507fffffffffffffffffffffffffffffffffffffffffffffffffffffffffffffffff82036125085761250761249c565b5b600182019050919050565b7f4e487b7100000000000000000000000000000000000000000000000000000000600052602260045260246000fd5b6000600282049050600182168061255a57607f821691505b60208210810361256d5761256c612513565b5b50919050565b7f4552433732313a20617070726f76656420717565727920666f72206e6f6e657860008201527f697374656e7420746f6b656e0000000000000000000000000000000000000000602082015250565b60006125cf602c83611e2d565b91506125da82612573565b604082019050919050565b600060208201905081810360008301526125fe816125c2565b9050919050565b7f4552433732313a20617070726f76616c20746f2063757272656e74206f776e6560008201527f7200000000000000000000000000000000000000000000000000000000000000602082015250565b6000612661602183611e2d565b915061266c82612605565b604082019050919050565b6000602082019050818103600083015261269081612654565b9050919050565b7f4552433732313a20617070726f76652063616c6c6572206973206e6f74206f7760008201527f6e6572206e6f7220617070726f76656420666f7220616c6c0000000000000000602082015250565b60006126f3603883611e2d565b91506126fe82612697565b604082019050919050565b60006020820190508181036000830152612722816126e6565b9050919050565b7f4552433732313a207472616e736665722063616c6c6572206973206e6f74206f60008201527f776e6572206e6f7220617070726f766564000000000000000000000000000000602082015250565b6000612785603183611e2d565b915061279082612729565b604082019050919050565b600060208201905081810360008301526127b481612778565b9050919050565b60006127c682611d99565b91506127d183611d99565b9250827fffffffffffffffffffffffffffffffffffffffffffffffffffffffffffffffff038211156128065761280561249c565b5b828201905092915050565b7f4552433732313a206f776e657220717565727920666f72206e6f6e657869737460008201527f656e7420746f6b656e0000000000000000000000000000000000000000000000602082015250565b600061286d602983611e2d565b915061287882612811565b604082019050919050565b6000602082019050818103600083015261289c81612860565b9050919050565b7f4552433732313a2062616c616e636520717565727920666f7220746865207a6560008201527f726f206164647265737300000000000000000000000000000000000000000000602082015250565b60006128ff602a83611e2d565b915061290a826128a3565b604082019050919050565b6000602082019050818103600083015261292e816128f2565b9050919050565b7f4e487b7100000000000000000000000000000000000000000000000000000000600052603260045260246000fd5b7f4552433732314d657461646174613a2055524920717565727920666f72206e6f60008201527f6e6578697374656e7420746f6b656e0000000000000000000000000000000000602082015250565b60006129c0602f83611e2d565b91506129cb82612964565b604082019050919050565b600060208201905081810360008301526129ef816129b3565b9050919050565b600081905092915050565b6000612a0c82611e22565b612a1681856129f6565b9350612a26818560208601611e3e565b80840191505092915050565b6000612a3e8285612a01565b9150612a4a8284612a01565b91508190509392505050565b7f4f776e61626c653a206e6577206f776e657220697320746865207a65726f206160008201527f6464726573730000000000000000000000000000000000000000000000000000602082015250565b6000612ab2602683611e2d565b9150612abd82612a56565b604082019050919050565b60006020820190508181036000830152612ae181612aa5565b9050919050565b7f4552433732313a206f70657261746f7220717565727920666f72206e6f6e657860008201527f697374656e7420746f6b656e0000000000000000000000000000000000000000602082015250565b6000612b44602c83611e2d565b9150612b4f82612ae8565b604082019050919050565b60006020820190508181036000830152612b7381612b37565b9050919050565b7f4552433732313a207472616e736665722066726f6d20696e636f72726563742060008201527f6f776e6572000000000000000000000000000000000000000000000000000000602082015250565b6000612bd6602583611e2d565b9150612be182612b7a565b604082019050919050565b60006020820190508181036000830152612c0581612bc9565b9050919050565b7f4552433732313a207472616e7366657220746f20746865207a65726f2061646460008201527f7265737300000000000000000000000000000000000000000000000000000000602082015250565b6000612c68602483611e2d565b9150612c7382612c0c565b604082019050919050565b60006020820190508181036000830152612c9781612c5b565b9050919050565b6000612ca982611d99565b9150612cb483611d99565b925082821015612cc757612cc661249c565b5b828203905092915050565b7f4552433732313a20617070726f766520746f2063616c6c657200000000000000600082015250565b6000612d08601983611e2d565b9150612d1382612cd2565b602082019050919050565b60006020820190508181036000830152612d3781612cfb565b9050919050565b7f4552433732313a207472616e7366657220746f206e6f6e20455243373231526560008201527f63656976657220696d706c656d656e7465720000000000000000000000000000602082015250565b6000612d9a603283611e2d565b9150612da582612d3e565b604082019050919050565b60006020820190508181036000830152612dc981612d8d565b9050919050565b7f4e487b7100000000000000000000000000000000000000000000000000000000600052601260045260246000fd5b6000612e0a82611d99565b9150612e1583611d99565b925082612e2557612e24612dd0565b5b828204905092915050565b6000612e3b82611d99565b9150612e4683611d99565b925082612e5657612e55612dd0565b5b828206905092915050565b600081519050919050565b600082825260208201905092915050565b6000612e8882612e61565b612e928185612e6c565b9350612ea2818560208601611e3e565b612eab81611e71565b840191505092915050565b6000608082019050612ecb6000830187611f3c565b612ed86020830186611f3c565b612ee56040830185612052565b8181036060830152612ef78184612e7d565b905095945050505050565b600081519050612f1181611d0a565b92915050565b600060208284031215612f2d57612f2c611cd4565b5b6000612f3b84828501612f02565b91505092915050565b7f4552433732313a206d696e7420746f20746865207a65726f2061646472657373600082015250565b6000612f7a602083611e2d565b9150612f8582612f44565b602082019050919050565b60006020820190508181036000830152612fa981612f6d565b9050919050565b7f4552433732313a20746f6b656e20616c7265616479206d696e74656400000000600082015250565b6000612fe6601c83611e2d565b9150612ff182612fb0565b602082019050919050565b6000602082019050818103600083015261301581612fd9565b905091905056fea2646970667358221220dde2e8614edee14d8b450edf31b0fc45ba36e26a3ebc809b56279e5a25a7279264736f6c634300080f0033",
  "immutableReferences": {},
  "source": "//SPDX-License-Identifier: UNLICENSED\r\npragma solidity 0.8.15;\r\n\r\nimport \"../node_modules/@openzeppelin/contracts/token/ERC721/ERC721.sol\";\r\nimport \"../node_modules/@openzeppelin/contracts/access/Ownable.sol\";\r\n\r\ncontract Token is ERC721, Ownable {\r\n    struct Pet {\r\n        uint256 damage;\r\n        uint256 magic;\r\n        uint256 lastMeal;\r\n        uint256 endurance;\r\n    }\r\n\r\n    uint256 nextId = 0;\r\n\r\n    mapping(uint256 => Pet) private _tokenDetails;\r\n\r\n    constructor(string memory name, string memory symbol)\r\n        ERC721(name, symbol)\r\n    {}\r\n\r\n    function getTokenDetails(uint256 tokenId) public view returns (Pet memory) {\r\n        return _tokenDetails[tokenId];\r\n    }\r\n\r\n    function mint(\r\n        uint256 damage,\r\n        uint256 magic,\r\n        uint256 endurance\r\n    ) public onlyOwner {\r\n        _safeMint(msg.sender, nextId);\r\n\r\n        _tokenDetails[nextId] = Pet(damage, magic, block.timestamp, endurance);\r\n        nextId++;\r\n    }\r\n\r\n    function feed() public {\r\n        Pet storage pet = _tokenDetails[nextId];\r\n        require(pet.lastMeal + pet.endurance > block.timestamp);\r\n        pet.lastMeal = block.timestamp;\r\n    }\r\n\r\n    function getAllTokensForUser(address user)\r\n        public\r\n        view\r\n        returns (uint256[] memory)\r\n    {\r\n        uint256 tokenCount = balanceOf(user);\r\n        if (tokenCount == 0) {\r\n            return new uint256[](0);\r\n        } else {\r\n            uint256[] memory result = new uint256[](tokenCount);\r\n            uint256 totalPets = nextId;\r\n            uint256 resultIndex = 0;\r\n\r\n            for (uint256 index = 0; index < totalPets; index++) {\r\n                if (ownerOf(index) == user) {\r\n                    result[resultIndex] = index;\r\n                    resultIndex++;\r\n                }\r\n            }\r\n\r\n            return result;\r\n        }\r\n    }\r\n\r\n    // function feed(uint256 tokenId) public {\r\n    //     Pet storage pet = _tokenDetails[nextId];\r\n    //     require(pet.lastMeal + pet.endurance > block.timestamp);\r\n    //     pet.lastMeal = block.timestamp;\r\n    // }\r\n\r\n    // function _beforeTokenTransfer(\r\n    //     address from,\r\n    //     address to,\r\n    //     uint256 tokenId\r\n    // ) internal override {\r\n    //     Pet storage pet = _tokenDetails[nextId];\r\n    //     require(pet.lastMeal + pet.endurance > block.timestamp);\r\n    // }\r\n}\r\n",
  "sourcePath": "C:\\Users\\xuanv\\OneDrive\\Documents\\School\\CNM\\nft-game\\contracts\\Token.sol",
  "compiler": {
    "name": "solc",
    "version": "0.8.15+commit.e14f2714.Emscripten.clang"
  },
  "schemaVersion": "3.4.8",
  "updatedAt": "2022-07-07T09:25:57.181Z",
  "networkType": "ethereum",
  "devdoc": {
    "kind": "dev",
    "methods": {
      "approve(address,uint256)": {
        "details": "See {IERC721-approve}."
      },
      "balanceOf(address)": {
        "details": "See {IERC721-balanceOf}."
      },
      "getApproved(uint256)": {
        "details": "See {IERC721-getApproved}."
      },
      "isApprovedForAll(address,address)": {
        "details": "See {IERC721-isApprovedForAll}."
      },
      "name()": {
        "details": "See {IERC721Metadata-name}."
      },
      "owner()": {
        "details": "Returns the address of the current owner."
      },
      "ownerOf(uint256)": {
        "details": "See {IERC721-ownerOf}."
      },
      "renounceOwnership()": {
        "details": "Leaves the contract without owner. It will not be possible to call `onlyOwner` functions anymore. Can only be called by the current owner. NOTE: Renouncing ownership will leave the contract without an owner, thereby removing any functionality that is only available to the owner."
      },
      "safeTransferFrom(address,address,uint256)": {
        "details": "See {IERC721-safeTransferFrom}."
      },
      "safeTransferFrom(address,address,uint256,bytes)": {
        "details": "See {IERC721-safeTransferFrom}."
      },
      "setApprovalForAll(address,bool)": {
        "details": "See {IERC721-setApprovalForAll}."
      },
      "supportsInterface(bytes4)": {
        "details": "See {IERC165-supportsInterface}."
      },
      "symbol()": {
        "details": "See {IERC721Metadata-symbol}."
      },
      "tokenURI(uint256)": {
        "details": "See {IERC721Metadata-tokenURI}."
      },
      "transferFrom(address,address,uint256)": {
        "details": "See {IERC721-transferFrom}."
      },
      "transferOwnership(address)": {
        "details": "Transfers ownership of the contract to a new account (`newOwner`). Can only be called by the current owner."
      }
    },
    "version": 1
  },
  "userdoc": {
    "kind": "user",
    "methods": {},
    "version": 1
  }
}