{
  "contractName": "Token",
  "abi": [
    {
      "inputs": [
        {
          "internalType": "string",
          "name": "name",
          "type": "string"
        },
        {
          "internalType": "string",
          "name": "symbol",
          "type": "string"
        }
      ],
      "stateMutability": "nonpayable",
      "type": "constructor"
    },
    {
      "anonymous": false,
      "inputs": [
        {
          "indexed": true,
          "internalType": "address",
          "name": "owner",
          "type": "address"
        },
        {
          "indexed": true,
          "internalType": "address",
          "name": "approved",
          "type": "address"
        },
        {
          "indexed": true,
          "internalType": "uint256",
          "name": "tokenId",
          "type": "uint256"
        }
      ],
      "name": "Approval",
      "type": "event"
    },
    {
      "anonymous": false,
      "inputs": [
        {
          "indexed": true,
          "internalType": "address",
          "name": "owner",
          "type": "address"
        },
        {
          "indexed": true,
          "internalType": "address",
          "name": "operator",
          "type": "address"
        },
        {
          "indexed": false,
          "internalType": "bool",
          "name": "approved",
          "type": "bool"
        }
      ],
      "name": "ApprovalForAll",
      "type": "event"
    },
    {
      "anonymous": false,
      "inputs": [
        {
          "indexed": true,
          "internalType": "address",
          "name": "previousOwner",
          "type": "address"
        },
        {
          "indexed": true,
          "internalType": "address",
          "name": "newOwner",
          "type": "address"
        }
      ],
      "name": "OwnershipTransferred",
      "type": "event"
    },
    {
      "anonymous": false,
      "inputs": [
        {
          "indexed": true,
          "internalType": "address",
          "name": "from",
          "type": "address"
        },
        {
          "indexed": true,
          "internalType": "address",
          "name": "to",
          "type": "address"
        },
        {
          "indexed": true,
          "internalType": "uint256",
          "name": "tokenId",
          "type": "uint256"
        }
      ],
      "name": "Transfer",
      "type": "event"
    },
    {
      "inputs": [
        {
          "internalType": "address",
          "name": "to",
          "type": "address"
        },
        {
          "internalType": "uint256",
          "name": "tokenId",
          "type": "uint256"
        }
      ],
      "name": "approve",
      "outputs": [],
      "stateMutability": "nonpayable",
      "type": "function"
    },
    {
      "inputs": [
        {
          "internalType": "address",
          "name": "owner",
          "type": "address"
        }
      ],
      "name": "balanceOf",
      "outputs": [
        {
          "internalType": "uint256",
          "name": "",
          "type": "uint256"
        }
      ],
      "stateMutability": "view",
      "type": "function",
      "constant": true
    },
    {
      "inputs": [
        {
          "internalType": "uint256",
          "name": "tokenId",
          "type": "uint256"
        }
      ],
      "name": "getApproved",
      "outputs": [
        {
          "internalType": "address",
          "name": "",
          "type": "address"
        }
      ],
      "stateMutability": "view",
      "type": "function",
      "constant": true
    },
    {
      "inputs": [
        {
          "internalType": "address",
          "name": "owner",
          "type": "address"
        },
        {
          "internalType": "address",
          "name": "operator",
          "type": "address"
        }
      ],
      "name": "isApprovedForAll",
      "outputs": [
        {
          "internalType": "bool",
          "name": "",
          "type": "bool"
        }
      ],
      "stateMutability": "view",
      "type": "function",
      "constant": true
    },
    {
      "inputs": [],
      "name": "name",
      "outputs": [
        {
          "internalType": "string",
          "name": "",
          "type": "string"
        }
      ],
      "stateMutability": "view",
      "type": "function",
      "constant": true
    },
    {
      "inputs": [],
      "name": "owner",
      "outputs": [
        {
          "internalType": "address",
          "name": "",
          "type": "address"
        }
      ],
      "stateMutability": "view",
      "type": "function",
      "constant": true
    },
    {
      "inputs": [
        {
          "internalType": "uint256",
          "name": "tokenId",
          "type": "uint256"
        }
      ],
      "name": "ownerOf",
      "outputs": [
        {
          "internalType": "address",
          "name": "",
          "type": "address"
        }
      ],
      "stateMutability": "view",
      "type": "function",
      "constant": true
    },
    {
      "inputs": [],
      "name": "renounceOwnership",
      "outputs": [],
      "stateMutability": "nonpayable",
      "type": "function"
    },
    {
      "inputs": [
        {
          "internalType": "address",
          "name": "from",
          "type": "address"
        },
        {
          "internalType": "address",
          "name": "to",
          "type": "address"
        },
        {
          "internalType": "uint256",
          "name": "tokenId",
          "type": "uint256"
        }
      ],
      "name": "safeTransferFrom",
      "outputs": [],
      "stateMutability": "nonpayable",
      "type": "function"
    },
    {
      "inputs": [
        {
          "internalType": "address",
          "name": "from",
          "type": "address"
        },
        {
          "internalType": "address",
          "name": "to",
          "type": "address"
        },
        {
          "internalType": "uint256",
          "name": "tokenId",
          "type": "uint256"
        },
        {
          "internalType": "bytes",
          "name": "_data",
          "type": "bytes"
        }
      ],
      "name": "safeTransferFrom",
      "outputs": [],
      "stateMutability": "nonpayable",
      "type": "function"
    },
    {
      "inputs": [
        {
          "internalType": "address",
          "name": "operator",
          "type": "address"
        },
        {
          "internalType": "bool",
          "name": "approved",
          "type": "bool"
        }
      ],
      "name": "setApprovalForAll",
      "outputs": [],
      "stateMutability": "nonpayable",
      "type": "function"
    },
    {
      "inputs": [
        {
          "internalType": "bytes4",
          "name": "interfaceId",
          "type": "bytes4"
        }
      ],
      "name": "supportsInterface",
      "outputs": [
        {
          "internalType": "bool",
          "name": "",
          "type": "bool"
        }
      ],
      "stateMutability": "view",
      "type": "function",
      "constant": true
    },
    {
      "inputs": [],
      "name": "symbol",
      "outputs": [
        {
          "internalType": "string",
          "name": "",
          "type": "string"
        }
      ],
      "stateMutability": "view",
      "type": "function",
      "constant": true
    },
    {
      "inputs": [
        {
          "internalType": "uint256",
          "name": "tokenId",
          "type": "uint256"
        }
      ],
      "name": "tokenURI",
      "outputs": [
        {
          "internalType": "string",
          "name": "",
          "type": "string"
        }
      ],
      "stateMutability": "view",
      "type": "function",
      "constant": true
    },
    {
      "inputs": [
        {
          "internalType": "address",
          "name": "from",
          "type": "address"
        },
        {
          "internalType": "address",
          "name": "to",
          "type": "address"
        },
        {
          "internalType": "uint256",
          "name": "tokenId",
          "type": "uint256"
        }
      ],
      "name": "transferFrom",
      "outputs": [],
      "stateMutability": "nonpayable",
      "type": "function"
    },
    {
      "inputs": [
        {
          "internalType": "address",
          "name": "newOwner",
          "type": "address"
        }
      ],
      "name": "transferOwnership",
      "outputs": [],
      "stateMutability": "nonpayable",
      "type": "function"
    },
    {
      "inputs": [
        {
          "internalType": "uint8",
          "name": "element",
          "type": "uint8"
        },
        {
          "internalType": "uint256",
          "name": "damage",
          "type": "uint256"
        },
        {
          "internalType": "uint256",
          "name": "defend",
          "type": "uint256"
        },
        {
          "internalType": "uint256",
          "name": "endurance",
          "type": "uint256"
        },
        {
          "internalType": "uint256",
          "name": "experience",
          "type": "uint256"
        },
        {
          "internalType": "uint256",
          "name": "level",
          "type": "uint256"
        },
        {
          "internalType": "uint8",
          "name": "isLock",
          "type": "uint8"
        }
      ],
      "name": "mint",
      "outputs": [],
      "stateMutability": "nonpayable",
      "type": "function"
    },
    {
      "inputs": [
        {
          "internalType": "uint256",
          "name": "tokenId",
          "type": "uint256"
        }
      ],
      "name": "getTokenDetails",
      "outputs": [
        {
          "components": [
            {
              "internalType": "uint256",
              "name": "id",
              "type": "uint256"
            },
            {
              "internalType": "uint8",
              "name": "element",
              "type": "uint8"
            },
            {
              "internalType": "uint256",
              "name": "damage",
              "type": "uint256"
            },
            {
              "internalType": "uint256",
              "name": "defend",
              "type": "uint256"
            },
            {
              "internalType": "uint256",
              "name": "lastMeal",
              "type": "uint256"
            },
            {
              "internalType": "uint256",
              "name": "endurance",
              "type": "uint256"
            },
            {
              "internalType": "uint256",
              "name": "experience",
              "type": "uint256"
            },
            {
              "internalType": "uint256",
              "name": "level",
              "type": "uint256"
            },
            {
              "internalType": "uint8",
              "name": "isLock",
              "type": "uint8"
            }
          ],
          "internalType": "struct Token.Pet",
          "name": "",
          "type": "tuple"
        }
      ],
      "stateMutability": "view",
      "type": "function",
      "constant": true
    },
    {
      "inputs": [],
      "name": "getAllTokens",
      "outputs": [
        {
          "components": [
            {
              "internalType": "uint256",
              "name": "id",
              "type": "uint256"
            },
            {
              "internalType": "uint8",
              "name": "element",
              "type": "uint8"
            },
            {
              "internalType": "uint256",
              "name": "damage",
              "type": "uint256"
            },
            {
              "internalType": "uint256",
              "name": "defend",
              "type": "uint256"
            },
            {
              "internalType": "uint256",
              "name": "lastMeal",
              "type": "uint256"
            },
            {
              "internalType": "uint256",
              "name": "endurance",
              "type": "uint256"
            },
            {
              "internalType": "uint256",
              "name": "experience",
              "type": "uint256"
            },
            {
              "internalType": "uint256",
              "name": "level",
              "type": "uint256"
            },
            {
              "internalType": "uint8",
              "name": "isLock",
              "type": "uint8"
            }
          ],
          "internalType": "struct Token.Pet[]",
          "name": "",
          "type": "tuple[]"
        }
      ],
      "stateMutability": "view",
      "type": "function",
      "constant": true
    },
    {
      "inputs": [
        {
          "internalType": "uint256",
          "name": "tokenId",
          "type": "uint256"
        }
      ],
      "name": "unLock",
      "outputs": [],
      "stateMutability": "nonpayable",
      "type": "function"
    },
    {
      "inputs": [
        {
          "internalType": "uint256",
          "name": "tokenId",
          "type": "uint256"
        },
        {
          "internalType": "uint256",
          "name": "exp",
          "type": "uint256"
        }
      ],
      "name": "receiveExperience",
      "outputs": [],
      "stateMutability": "nonpayable",
      "type": "function"
    },
    {
      "inputs": [
        {
          "internalType": "uint256",
          "name": "tokenId",
          "type": "uint256"
        }
      ],
      "name": "feed",
      "outputs": [],
      "stateMutability": "nonpayable",
      "type": "function"
    }
  ],
  "bytecode": "0x608060405260006007553480156200001657600080fd5b5060405162003d5d38038062003d5d83398181016040528101906200003c9190620002f7565b818181600090816200004f9190620005c7565b508060019081620000619190620005c7565b50505062000084620000786200008c60201b60201c565b6200009460201b60201c565b5050620006ae565b600033905090565b6000600660009054906101000a900473ffffffffffffffffffffffffffffffffffffffff16905081600660006101000a81548173ffffffffffffffffffffffffffffffffffffffff021916908373ffffffffffffffffffffffffffffffffffffffff1602179055508173ffffffffffffffffffffffffffffffffffffffff168173ffffffffffffffffffffffffffffffffffffffff167f8be0079c531659141344cd1fd0a4f28419497f9722a3daafe3b4186f6b6457e060405160405180910390a35050565b6000604051905090565b600080fd5b600080fd5b600080fd5b600080fd5b6000601f19601f8301169050919050565b7f4e487b7100000000000000000000000000000000000000000000000000000000600052604160045260246000fd5b620001c38262000178565b810181811067ffffffffffffffff82111715620001e557620001e462000189565b5b80604052505050565b6000620001fa6200015a565b9050620002088282620001b8565b919050565b600067ffffffffffffffff8211156200022b576200022a62000189565b5b620002368262000178565b9050602081019050919050565b60005b838110156200026357808201518184015260208101905062000246565b8381111562000273576000848401525b50505050565b6000620002906200028a846200020d565b620001ee565b905082815260208101848484011115620002af57620002ae62000173565b5b620002bc84828562000243565b509392505050565b600082601f830112620002dc57620002db6200016e565b5b8151620002ee84826020860162000279565b91505092915050565b6000806040838503121562000311576200031062000164565b5b600083015167ffffffffffffffff81111562000332576200033162000169565b5b6200034085828601620002c4565b925050602083015167ffffffffffffffff81111562000364576200036362000169565b5b6200037285828601620002c4565b9150509250929050565b600081519050919050565b7f4e487b7100000000000000000000000000000000000000000000000000000000600052602260045260246000fd5b60006002820490506001821680620003cf57607f821691505b602082108103620003e557620003e462000387565b5b50919050565b60008190508160005260206000209050919050565b60006020601f8301049050919050565b600082821b905092915050565b6000600883026200044f7fffffffffffffffffffffffffffffffffffffffffffffffffffffffffffffffff8262000410565b6200045b868362000410565b95508019841693508086168417925050509392505050565b6000819050919050565b6000819050919050565b6000620004a8620004a26200049c8462000473565b6200047d565b62000473565b9050919050565b6000819050919050565b620004c48362000487565b620004dc620004d382620004af565b8484546200041d565b825550505050565b600090565b620004f3620004e4565b62000500818484620004b9565b505050565b5b8181101562000528576200051c600082620004e9565b60018101905062000506565b5050565b601f82111562000577576200054181620003eb565b6200054c8462000400565b810160208510156200055c578190505b620005746200056b8562000400565b83018262000505565b50505b505050565b600082821c905092915050565b60006200059c600019846008026200057c565b1980831691505092915050565b6000620005b7838362000589565b9150826002028217905092915050565b620005d2826200037c565b67ffffffffffffffff811115620005ee57620005ed62000189565b5b620005fa8254620003b6565b620006078282856200052c565b600060209050601f8311600181146200063f57600084156200062a578287015190505b620006368582620005a9565b865550620006a6565b601f1984166200064f86620003eb565b60005b82811015620006795784890151825560018201915060208501945060208101905062000652565b8683101562000699578489015162000695601f89168262000589565b8355505b6001600288020188555050505b505050505050565b61369f80620006be6000396000f3fe608060405234801561001057600080fd5b50600436106101425760003560e01c806370a08231116100b8578063b88d4fde1161007c578063b88d4fde1461034d578063c1e0372814610369578063c87b56dd14610399578063e985e9c5146103c9578063f2fde38b146103f9578063f59dfdfb1461041557610142565b806370a08231146102bb578063715018a6146102eb5780638da5cb5b146102f557806395d89b4114610313578063a22cb4651461033157610142565b806316f6208d1161010a57806316f6208d146101fd57806323b872dd146102195780632a5c792a1461023557806342842e0e146102535780636352211e1461026f5780636489284e1461029f57610142565b806301ffc9a71461014757806302d6aee11461017757806306fdde0314610193578063081812fc146101b1578063095ea7b3146101e1575b600080fd5b610161600480360381019061015c919061210e565b610431565b60405161016e9190612156565b60405180910390f35b610191600480360381019061018c91906121a7565b610513565b005b61019b610576565b6040516101a8919061226d565b60405180910390f35b6101cb60048036038101906101c691906121a7565b610608565b6040516101d891906122d0565b60405180910390f35b6101fb60048036038101906101f69190612317565b61068d565b005b61021760048036038101906102129190612390565b6107a4565b005b610233600480360381019061022e9190612432565b610936565b005b61023d610996565b60405161024a919061260a565b60405180910390f35b61026d60048036038101906102689190612432565b610b3e565b005b610289600480360381019061028491906121a7565b610b5e565b60405161029691906122d0565b60405180910390f35b6102b960048036038101906102b4919061262c565b610c0f565b005b6102d560048036038101906102d0919061266c565b610d28565b6040516102e291906126a8565b60405180910390f35b6102f3610ddf565b005b6102fd610e67565b60405161030a91906122d0565b60405180910390f35b61031b610e91565b604051610328919061226d565b60405180910390f35b61034b600480360381019061034691906126ef565b610f23565b005b61036760048036038101906103629190612864565b610f39565b005b610383600480360381019061037e91906121a7565b610f9b565b604051610390919061299e565b60405180910390f35b6103b360048036038101906103ae91906121a7565b611049565b6040516103c0919061226d565b60405180910390f35b6103e360048036038101906103de91906129ba565b6110f0565b6040516103f09190612156565b60405180910390f35b610413600480360381019061040e919061266c565b611184565b005b61042f600480360381019061042a91906121a7565b61127b565b005b60007f80ac58cd000000000000000000000000000000000000000000000000000000007bffffffffffffffffffffffffffffffffffffffffffffffffffffffff1916827bffffffffffffffffffffffffffffffffffffffffffffffffffffffff191614806104fc57507f5b5e139f000000000000000000000000000000000000000000000000000000007bffffffffffffffffffffffffffffffffffffffffffffffffffffffff1916827bffffffffffffffffffffffffffffffffffffffffffffffffffffffff1916145b8061050c575061050b8261136a565b5b9050919050565b600060086000838152602001908152602001600020905060018160080160009054906101000a900460ff1660ff161461054b57600080fd5b60008160080160006101000a81548160ff021916908360ff1602179055504281600401819055505050565b60606000805461058590612a29565b80601f01602080910402602001604051908101604052809291908181526020018280546105b190612a29565b80156105fe5780601f106105d3576101008083540402835291602001916105fe565b820191906000526020600020905b8154815290600101906020018083116105e157829003601f168201915b5050505050905090565b6000610613826113d4565b610652576040517f08c379a000000000000000000000000000000000000000000000000000000000815260040161064990612acc565b60405180910390fd5b6004600083815260200190815260200160002060009054906101000a900473ffffffffffffffffffffffffffffffffffffffff169050919050565b600061069882610b5e565b90508073ffffffffffffffffffffffffffffffffffffffff168373ffffffffffffffffffffffffffffffffffffffff1603610708576040517f08c379a00000000000000000000000000000000000000000000000000000000081526004016106ff90612b5e565b60405180910390fd5b8073ffffffffffffffffffffffffffffffffffffffff16610727611440565b73ffffffffffffffffffffffffffffffffffffffff161480610756575061075581610750611440565b6110f0565b5b610795576040517f08c379a000000000000000000000000000000000000000000000000000000000815260040161078c90612bf0565b60405180910390fd5b61079f8383611448565b505050565b6107ac611440565b73ffffffffffffffffffffffffffffffffffffffff166107ca610e67565b73ffffffffffffffffffffffffffffffffffffffff1614610820576040517f08c379a000000000000000000000000000000000000000000000000000000000815260040161081790612c5c565b60405180910390fd5b61082c33600754611501565b60405180610120016040528060075481526020018860ff1681526020018781526020018681526020014281526020018581526020018481526020018381526020018260ff168152506008600060075481526020019081526020016000206000820151816000015560208201518160010160006101000a81548160ff021916908360ff16021790555060408201518160020155606082015181600301556080820151816004015560a0820151816005015560c0820151816006015560e082015181600701556101008201518160080160006101000a81548160ff021916908360ff1602179055509050506007600081548092919061092890612cab565b919050555050505050505050565b610947610941611440565b8261151f565b610986576040517f08c379a000000000000000000000000000000000000000000000000000000000815260040161097d90612d65565b60405180910390fd5b6109918383836115fd565b505050565b60606000600754036109fe57600067ffffffffffffffff8111156109bd576109bc612739565b5b6040519080825280602002602001820160405280156109f657816020015b6109e3612050565b8152602001906001900390816109db5790505b509050610b3b565b600060075467ffffffffffffffff811115610a1c57610a1b612739565b5b604051908082528060200260200182016040528015610a5557816020015b610a42612050565b815260200190600190039081610a3a5790505b50905060005b600754811015610b35576008600082815260200190815260200160002060405180610120016040529081600082015481526020016001820160009054906101000a900460ff1660ff1660ff1681526020016002820154815260200160038201548152602001600482015481526020016005820154815260200160068201548152602001600782015481526020016008820160009054906101000a900460ff1660ff1660ff1681525050828281518110610b1757610b16612d85565b5b60200260200101819052508080610b2d90612cab565b915050610a5b565b50809150505b90565b610b5983838360405180602001604052806000815250610f39565b505050565b6000806002600084815260200190815260200160002060009054906101000a900473ffffffffffffffffffffffffffffffffffffffff169050600073ffffffffffffffffffffffffffffffffffffffff168173ffffffffffffffffffffffffffffffffffffffff1603610c06576040517f08c379a0000000000000000000000000000000000000000000000000000000008152600401610bfd90612e26565b60405180910390fd5b80915050919050565b600060086000848152602001908152602001600020905060008160080160009054906101000a900460ff1660ff1614610c4757600080fd5b81816006016000828254610c5b9190612e46565b925050819055505b600115610d235780600701546064610c7b9190612e9c565b816006015410610d195780600701546064610c969190612e9c565b816006016000828254610ca99190612ef6565b92505081905550806007016000815480929190610cc590612cab565b919050555060148160070154610cdb9190612e9c565b6064610ce79190612e46565b8160020181905550600a8160070154610d009190612e9c565b6064610d0c9190612e46565b8160030181905550610d1e565b610d23565b610c63565b505050565b60008073ffffffffffffffffffffffffffffffffffffffff168273ffffffffffffffffffffffffffffffffffffffff1603610d98576040517f08c379a0000000000000000000000000000000000000000000000000000000008152600401610d8f90612f9c565b60405180910390fd5b600360008373ffffffffffffffffffffffffffffffffffffffff1673ffffffffffffffffffffffffffffffffffffffff168152602001908152602001600020549050919050565b610de7611440565b73ffffffffffffffffffffffffffffffffffffffff16610e05610e67565b73ffffffffffffffffffffffffffffffffffffffff1614610e5b576040517f08c379a0000000000000000000000000000000000000000000000000000000008152600401610e5290612c5c565b60405180910390fd5b610e656000611863565b565b6000600660009054906101000a900473ffffffffffffffffffffffffffffffffffffffff16905090565b606060018054610ea090612a29565b80601f0160208091040260200160405190810160405280929190818152602001828054610ecc90612a29565b8015610f195780601f10610eee57610100808354040283529160200191610f19565b820191906000526020600020905b815481529060010190602001808311610efc57829003601f168201915b5050505050905090565b610f35610f2e611440565b8383611929565b5050565b610f4a610f44611440565b8361151f565b610f89576040517f08c379a0000000000000000000000000000000000000000000000000000000008152600401610f8090612d65565b60405180910390fd5b610f9584848484611a95565b50505050565b610fa3612050565b6008600083815260200190815260200160002060405180610120016040529081600082015481526020016001820160009054906101000a900460ff1660ff1660ff1681526020016002820154815260200160038201548152602001600482015481526020016005820154815260200160068201548152602001600782015481526020016008820160009054906101000a900460ff1660ff1660ff16815250509050919050565b6060611054826113d4565b611093576040517f08c379a000000000000000000000000000000000000000000000000000000000815260040161108a9061302e565b60405180910390fd5b600061109d611af1565b905060008151116110bd57604051806020016040528060008152506110e8565b806110c784611b08565b6040516020016110d892919061308a565b6040516020818303038152906040525b915050919050565b6000600560008473ffffffffffffffffffffffffffffffffffffffff1673ffffffffffffffffffffffffffffffffffffffff16815260200190815260200160002060008373ffffffffffffffffffffffffffffffffffffffff1673ffffffffffffffffffffffffffffffffffffffff16815260200190815260200160002060009054906101000a900460ff16905092915050565b61118c611440565b73ffffffffffffffffffffffffffffffffffffffff166111aa610e67565b73ffffffffffffffffffffffffffffffffffffffff1614611200576040517f08c379a00000000000000000000000000000000000000000000000000000000081526004016111f790612c5c565b60405180910390fd5b600073ffffffffffffffffffffffffffffffffffffffff168173ffffffffffffffffffffffffffffffffffffffff160361126f576040517f08c379a000000000000000000000000000000000000000000000000000000000815260040161126690613120565b60405180910390fd5b61127881611863565b50565b600060086000838152602001908152602001600020905060008160080160009054906101000a900460ff1660ff16146112b357600080fd5b806005015481600401546112c79190612e46565b42101561135d576000603c8260040154426112e29190612ef6565b6112ec919061316f565b90503073ffffffffffffffffffffffffffffffffffffffff16636489284e84836040518363ffffffff1660e01b81526004016113299291906131a0565b600060405180830381600087803b15801561134357600080fd5b505af1158015611357573d6000803e3d6000fd5b50505050505b4281600401819055505050565b60007f01ffc9a7000000000000000000000000000000000000000000000000000000007bffffffffffffffffffffffffffffffffffffffffffffffffffffffff1916827bffffffffffffffffffffffffffffffffffffffffffffffffffffffff1916149050919050565b60008073ffffffffffffffffffffffffffffffffffffffff166002600084815260200190815260200160002060009054906101000a900473ffffffffffffffffffffffffffffffffffffffff1673ffffffffffffffffffffffffffffffffffffffff1614159050919050565b600033905090565b816004600083815260200190815260200160002060006101000a81548173ffffffffffffffffffffffffffffffffffffffff021916908373ffffffffffffffffffffffffffffffffffffffff160217905550808273ffffffffffffffffffffffffffffffffffffffff166114bb83610b5e565b73ffffffffffffffffffffffffffffffffffffffff167f8c5be1e5ebec7d5bd14f71427d1e84f3dd0314c0f7b2291e5b200ac8c7c3b92560405160405180910390a45050565b61151b828260405180602001604052806000815250611c68565b5050565b600061152a826113d4565b611569576040517f08c379a00000000000000000000000000000000000000000000000000000000081526004016115609061323b565b60405180910390fd5b600061157483610b5e565b90508073ffffffffffffffffffffffffffffffffffffffff168473ffffffffffffffffffffffffffffffffffffffff1614806115b657506115b581856110f0565b5b806115f457508373ffffffffffffffffffffffffffffffffffffffff166115dc84610608565b73ffffffffffffffffffffffffffffffffffffffff16145b91505092915050565b8273ffffffffffffffffffffffffffffffffffffffff1661161d82610b5e565b73ffffffffffffffffffffffffffffffffffffffff1614611673576040517f08c379a000000000000000000000000000000000000000000000000000000000815260040161166a906132cd565b60405180910390fd5b600073ffffffffffffffffffffffffffffffffffffffff168273ffffffffffffffffffffffffffffffffffffffff16036116e2576040517f08c379a00000000000000000000000000000000000000000000000000000000081526004016116d99061335f565b60405180910390fd5b6116ed838383611cc3565b6116f8600082611448565b6001600360008573ffffffffffffffffffffffffffffffffffffffff1673ffffffffffffffffffffffffffffffffffffffff16815260200190815260200160002060008282546117489190612ef6565b925050819055506001600360008473ffffffffffffffffffffffffffffffffffffffff1673ffffffffffffffffffffffffffffffffffffffff168152602001908152602001600020600082825461179f9190612e46565b92505081905550816002600083815260200190815260200160002060006101000a81548173ffffffffffffffffffffffffffffffffffffffff021916908373ffffffffffffffffffffffffffffffffffffffff160217905550808273ffffffffffffffffffffffffffffffffffffffff168473ffffffffffffffffffffffffffffffffffffffff167fddf252ad1be2c89b69c2b068fc378daa952ba7f163c4a11628f55a4df523b3ef60405160405180910390a461185e838383611cc8565b505050565b6000600660009054906101000a900473ffffffffffffffffffffffffffffffffffffffff16905081600660006101000a81548173ffffffffffffffffffffffffffffffffffffffff021916908373ffffffffffffffffffffffffffffffffffffffff1602179055508173ffffffffffffffffffffffffffffffffffffffff168173ffffffffffffffffffffffffffffffffffffffff167f8be0079c531659141344cd1fd0a4f28419497f9722a3daafe3b4186f6b6457e060405160405180910390a35050565b8173ffffffffffffffffffffffffffffffffffffffff168373ffffffffffffffffffffffffffffffffffffffff1603611997576040517f08c379a000000000000000000000000000000000000000000000000000000000815260040161198e906133cb565b60405180910390fd5b80600560008573ffffffffffffffffffffffffffffffffffffffff1673ffffffffffffffffffffffffffffffffffffffff16815260200190815260200160002060008473ffffffffffffffffffffffffffffffffffffffff1673ffffffffffffffffffffffffffffffffffffffff16815260200190815260200160002060006101000a81548160ff0219169083151502179055508173ffffffffffffffffffffffffffffffffffffffff168373ffffffffffffffffffffffffffffffffffffffff167f17307eab39ab6107e8899845ad3d59bd9653f200f220920489ca2b5937696c3183604051611a889190612156565b60405180910390a3505050565b611aa08484846115fd565b611aac84848484611ccd565b611aeb576040517f08c379a0000000000000000000000000000000000000000000000000000000008152600401611ae29061345d565b60405180910390fd5b50505050565b606060405180602001604052806000815250905090565b606060008203611b4f576040518060400160405280600181526020017f30000000000000000000000000000000000000000000000000000000000000008152509050611c63565b600082905060005b60008214611b81578080611b6a90612cab565b915050600a82611b7a919061316f565b9150611b57565b60008167ffffffffffffffff811115611b9d57611b9c612739565b5b6040519080825280601f01601f191660200182016040528015611bcf5781602001600182028036833780820191505090505b5090505b60008514611c5c57600182611be89190612ef6565b9150600a85611bf7919061347d565b6030611c039190612e46565b60f81b818381518110611c1957611c18612d85565b5b60200101907effffffffffffffffffffffffffffffffffffffffffffffffffffffffffffff1916908160001a905350600a85611c55919061316f565b9450611bd3565b8093505050505b919050565b611c728383611e54565b611c7f6000848484611ccd565b611cbe576040517f08c379a0000000000000000000000000000000000000000000000000000000008152600401611cb59061345d565b60405180910390fd5b505050565b505050565b505050565b6000611cee8473ffffffffffffffffffffffffffffffffffffffff1661202d565b15611e47578373ffffffffffffffffffffffffffffffffffffffff1663150b7a02611d17611440565b8786866040518563ffffffff1660e01b8152600401611d399493929190613503565b6020604051808303816000875af1925050508015611d7557506040513d601f19601f82011682018060405250810190611d729190613564565b60015b611df7573d8060008114611da5576040519150601f19603f3d011682016040523d82523d6000602084013e611daa565b606091505b506000815103611def576040517f08c379a0000000000000000000000000000000000000000000000000000000008152600401611de69061345d565b60405180910390fd5b805181602001fd5b63150b7a0260e01b7bffffffffffffffffffffffffffffffffffffffffffffffffffffffff1916817bffffffffffffffffffffffffffffffffffffffffffffffffffffffff191614915050611e4c565b600190505b949350505050565b600073ffffffffffffffffffffffffffffffffffffffff168273ffffffffffffffffffffffffffffffffffffffff1603611ec3576040517f08c379a0000000000000000000000000000000000000000000000000000000008152600401611eba906135dd565b60405180910390fd5b611ecc816113d4565b15611f0c576040517f08c379a0000000000000000000000000000000000000000000000000000000008152600401611f0390613649565b60405180910390fd5b611f1860008383611cc3565b6001600360008473ffffffffffffffffffffffffffffffffffffffff1673ffffffffffffffffffffffffffffffffffffffff1681526020019081526020016000206000828254611f689190612e46565b92505081905550816002600083815260200190815260200160002060006101000a81548173ffffffffffffffffffffffffffffffffffffffff021916908373ffffffffffffffffffffffffffffffffffffffff160217905550808273ffffffffffffffffffffffffffffffffffffffff16600073ffffffffffffffffffffffffffffffffffffffff167fddf252ad1be2c89b69c2b068fc378daa952ba7f163c4a11628f55a4df523b3ef60405160405180910390a461202960008383611cc8565b5050565b6000808273ffffffffffffffffffffffffffffffffffffffff163b119050919050565b60405180610120016040528060008152602001600060ff168152602001600081526020016000815260200160008152602001600081526020016000815260200160008152602001600060ff1681525090565b6000604051905090565b600080fd5b600080fd5b60007fffffffff0000000000000000000000000000000000000000000000000000000082169050919050565b6120eb816120b6565b81146120f657600080fd5b50565b600081359050612108816120e2565b92915050565b600060208284031215612124576121236120ac565b5b6000612132848285016120f9565b91505092915050565b60008115159050919050565b6121508161213b565b82525050565b600060208201905061216b6000830184612147565b92915050565b6000819050919050565b61218481612171565b811461218f57600080fd5b50565b6000813590506121a18161217b565b92915050565b6000602082840312156121bd576121bc6120ac565b5b60006121cb84828501612192565b91505092915050565b600081519050919050565b600082825260208201905092915050565b60005b8381101561220e5780820151818401526020810190506121f3565b8381111561221d576000848401525b50505050565b6000601f19601f8301169050919050565b600061223f826121d4565b61224981856121df565b93506122598185602086016121f0565b61226281612223565b840191505092915050565b600060208201905081810360008301526122878184612234565b905092915050565b600073ffffffffffffffffffffffffffffffffffffffff82169050919050565b60006122ba8261228f565b9050919050565b6122ca816122af565b82525050565b60006020820190506122e560008301846122c1565b92915050565b6122f4816122af565b81146122ff57600080fd5b50565b600081359050612311816122eb565b92915050565b6000806040838503121561232e5761232d6120ac565b5b600061233c85828601612302565b925050602061234d85828601612192565b9150509250929050565b600060ff82169050919050565b61236d81612357565b811461237857600080fd5b50565b60008135905061238a81612364565b92915050565b600080600080600080600060e0888a0312156123af576123ae6120ac565b5b60006123bd8a828b0161237b565b97505060206123ce8a828b01612192565b96505060406123df8a828b01612192565b95505060606123f08a828b01612192565b94505060806124018a828b01612192565b93505060a06124128a828b01612192565b92505060c06124238a828b0161237b565b91505092959891949750929550565b60008060006060848603121561244b5761244a6120ac565b5b600061245986828701612302565b935050602061246a86828701612302565b925050604061247b86828701612192565b9150509250925092565b600081519050919050565b600082825260208201905092915050565b6000819050602082019050919050565b6124ba81612171565b82525050565b6124c981612357565b82525050565b610120820160008201516124e660008501826124b1565b5060208201516124f960208501826124c0565b50604082015161250c60408501826124b1565b50606082015161251f60608501826124b1565b50608082015161253260808501826124b1565b5060a082015161254560a08501826124b1565b5060c082015161255860c08501826124b1565b5060e082015161256b60e08501826124b1565b506101008201516125806101008501826124c0565b50505050565b600061259283836124cf565b6101208301905092915050565b6000602082019050919050565b60006125b782612485565b6125c18185612490565b93506125cc836124a1565b8060005b838110156125fd5781516125e48882612586565b97506125ef8361259f565b9250506001810190506125d0565b5085935050505092915050565b6000602082019050818103600083015261262481846125ac565b905092915050565b60008060408385031215612643576126426120ac565b5b600061265185828601612192565b925050602061266285828601612192565b9150509250929050565b600060208284031215612682576126816120ac565b5b600061269084828501612302565b91505092915050565b6126a281612171565b82525050565b60006020820190506126bd6000830184612699565b92915050565b6126cc8161213b565b81146126d757600080fd5b50565b6000813590506126e9816126c3565b92915050565b60008060408385031215612706576127056120ac565b5b600061271485828601612302565b9250506020612725858286016126da565b9150509250929050565b600080fd5b600080fd5b7f4e487b7100000000000000000000000000000000000000000000000000000000600052604160045260246000fd5b61277182612223565b810181811067ffffffffffffffff821117156127905761278f612739565b5b80604052505050565b60006127a36120a2565b90506127af8282612768565b919050565b600067ffffffffffffffff8211156127cf576127ce612739565b5b6127d882612223565b9050602081019050919050565b82818337600083830152505050565b6000612807612802846127b4565b612799565b90508281526020810184848401111561282357612822612734565b5b61282e8482856127e5565b509392505050565b600082601f83011261284b5761284a61272f565b5b813561285b8482602086016127f4565b91505092915050565b6000806000806080858703121561287e5761287d6120ac565b5b600061288c87828801612302565b945050602061289d87828801612302565b93505060406128ae87828801612192565b925050606085013567ffffffffffffffff8111156128cf576128ce6120b1565b5b6128db87828801612836565b91505092959194509250565b610120820160008201516128fe60008501826124b1565b50602082015161291160208501826124c0565b50604082015161292460408501826124b1565b50606082015161293760608501826124b1565b50608082015161294a60808501826124b1565b5060a082015161295d60a08501826124b1565b5060c082015161297060c08501826124b1565b5060e082015161298360e08501826124b1565b506101008201516129986101008501826124c0565b50505050565b6000610120820190506129b460008301846128e7565b92915050565b600080604083850312156129d1576129d06120ac565b5b60006129df85828601612302565b92505060206129f085828601612302565b9150509250929050565b7f4e487b7100000000000000000000000000000000000000000000000000000000600052602260045260246000fd5b60006002820490506001821680612a4157607f821691505b602082108103612a5457612a536129fa565b5b50919050565b7f4552433732313a20617070726f76656420717565727920666f72206e6f6e657860008201527f697374656e7420746f6b656e0000000000000000000000000000000000000000602082015250565b6000612ab6602c836121df565b9150612ac182612a5a565b604082019050919050565b60006020820190508181036000830152612ae581612aa9565b9050919050565b7f4552433732313a20617070726f76616c20746f2063757272656e74206f776e6560008201527f7200000000000000000000000000000000000000000000000000000000000000602082015250565b6000612b486021836121df565b9150612b5382612aec565b604082019050919050565b60006020820190508181036000830152612b7781612b3b565b9050919050565b7f4552433732313a20617070726f76652063616c6c6572206973206e6f74206f7760008201527f6e6572206e6f7220617070726f76656420666f7220616c6c0000000000000000602082015250565b6000612bda6038836121df565b9150612be582612b7e565b604082019050919050565b60006020820190508181036000830152612c0981612bcd565b9050919050565b7f4f776e61626c653a2063616c6c6572206973206e6f7420746865206f776e6572600082015250565b6000612c466020836121df565b9150612c5182612c10565b602082019050919050565b60006020820190508181036000830152612c7581612c39565b9050919050565b7f4e487b7100000000000000000000000000000000000000000000000000000000600052601160045260246000fd5b6000612cb682612171565b91507fffffffffffffffffffffffffffffffffffffffffffffffffffffffffffffffff8203612ce857612ce7612c7c565b5b600182019050919050565b7f4552433732313a207472616e736665722063616c6c6572206973206e6f74206f60008201527f776e6572206e6f7220617070726f766564000000000000000000000000000000602082015250565b6000612d4f6031836121df565b9150612d5a82612cf3565b604082019050919050565b60006020820190508181036000830152612d7e81612d42565b9050919050565b7f4e487b7100000000000000000000000000000000000000000000000000000000600052603260045260246000fd5b7f4552433732313a206f776e657220717565727920666f72206e6f6e657869737460008201527f656e7420746f6b656e0000000000000000000000000000000000000000000000602082015250565b6000612e106029836121df565b9150612e1b82612db4565b604082019050919050565b60006020820190508181036000830152612e3f81612e03565b9050919050565b6000612e5182612171565b9150612e5c83612171565b9250827fffffffffffffffffffffffffffffffffffffffffffffffffffffffffffffffff03821115612e9157612e90612c7c565b5b828201905092915050565b6000612ea782612171565b9150612eb283612171565b9250817fffffffffffffffffffffffffffffffffffffffffffffffffffffffffffffffff0483118215151615612eeb57612eea612c7c565b5b828202905092915050565b6000612f0182612171565b9150612f0c83612171565b925082821015612f1f57612f1e612c7c565b5b828203905092915050565b7f4552433732313a2062616c616e636520717565727920666f7220746865207a6560008201527f726f206164647265737300000000000000000000000000000000000000000000602082015250565b6000612f86602a836121df565b9150612f9182612f2a565b604082019050919050565b60006020820190508181036000830152612fb581612f79565b9050919050565b7f4552433732314d657461646174613a2055524920717565727920666f72206e6f60008201527f6e6578697374656e7420746f6b656e0000000000000000000000000000000000602082015250565b6000613018602f836121df565b915061302382612fbc565b604082019050919050565b600060208201905081810360008301526130478161300b565b9050919050565b600081905092915050565b6000613064826121d4565b61306e818561304e565b935061307e8185602086016121f0565b80840191505092915050565b60006130968285613059565b91506130a28284613059565b91508190509392505050565b7f4f776e61626c653a206e6577206f776e657220697320746865207a65726f206160008201527f6464726573730000000000000000000000000000000000000000000000000000602082015250565b600061310a6026836121df565b9150613115826130ae565b604082019050919050565b60006020820190508181036000830152613139816130fd565b9050919050565b7f4e487b7100000000000000000000000000000000000000000000000000000000600052601260045260246000fd5b600061317a82612171565b915061318583612171565b92508261319557613194613140565b5b828204905092915050565b60006040820190506131b56000830185612699565b6131c26020830184612699565b9392505050565b7f4552433732313a206f70657261746f7220717565727920666f72206e6f6e657860008201527f697374656e7420746f6b656e0000000000000000000000000000000000000000602082015250565b6000613225602c836121df565b9150613230826131c9565b604082019050919050565b6000602082019050818103600083015261325481613218565b9050919050565b7f4552433732313a207472616e736665722066726f6d20696e636f72726563742060008201527f6f776e6572000000000000000000000000000000000000000000000000000000602082015250565b60006132b76025836121df565b91506132c28261325b565b604082019050919050565b600060208201905081810360008301526132e6816132aa565b9050919050565b7f4552433732313a207472616e7366657220746f20746865207a65726f2061646460008201527f7265737300000000000000000000000000000000000000000000000000000000602082015250565b60006133496024836121df565b9150613354826132ed565b604082019050919050565b600060208201905081810360008301526133788161333c565b9050919050565b7f4552433732313a20617070726f766520746f2063616c6c657200000000000000600082015250565b60006133b56019836121df565b91506133c08261337f565b602082019050919050565b600060208201905081810360008301526133e4816133a8565b9050919050565b7f4552433732313a207472616e7366657220746f206e6f6e20455243373231526560008201527f63656976657220696d706c656d656e7465720000000000000000000000000000602082015250565b60006134476032836121df565b9150613452826133eb565b604082019050919050565b600060208201905081810360008301526134768161343a565b9050919050565b600061348882612171565b915061349383612171565b9250826134a3576134a2613140565b5b828206905092915050565b600081519050919050565b600082825260208201905092915050565b60006134d5826134ae565b6134df81856134b9565b93506134ef8185602086016121f0565b6134f881612223565b840191505092915050565b600060808201905061351860008301876122c1565b61352560208301866122c1565b6135326040830185612699565b818103606083015261354481846134ca565b905095945050505050565b60008151905061355e816120e2565b92915050565b60006020828403121561357a576135796120ac565b5b60006135888482850161354f565b91505092915050565b7f4552433732313a206d696e7420746f20746865207a65726f2061646472657373600082015250565b60006135c76020836121df565b91506135d282613591565b602082019050919050565b600060208201905081810360008301526135f6816135ba565b9050919050565b7f4552433732313a20746f6b656e20616c7265616479206d696e74656400000000600082015250565b6000613633601c836121df565b915061363e826135fd565b602082019050919050565b6000602082019050818103600083015261366281613626565b905091905056fea2646970667358221220108011eeb30aa27650b17815c2911ca14fad1d2638933c8bff77f58cb80aec7564736f6c634300080f0033",
  "immutableReferences": {},
  "source": "//SPDX-License-Identifier: UNLICENSED\r\npragma solidity 0.8.15;\r\n\r\nimport \"../node_modules/@openzeppelin/contracts/token/ERC721/ERC721.sol\";\r\nimport \"../node_modules/@openzeppelin/contracts/access/Ownable.sol\";\r\n\r\ncontract Token is ERC721, Ownable {\r\n    struct Pet {\r\n        uint256 id;\r\n        uint8 element;\r\n        uint256 damage;\r\n        uint256 defend;\r\n        uint256 lastMeal;\r\n        uint256 endurance;\r\n        uint256 experience;\r\n        uint256 level;\r\n        uint8 isLock;\r\n    }\r\n\r\n    uint256 nextId = 0;\r\n\r\n    mapping(uint256 => Pet) private _tokenDetails;\r\n\r\n    constructor(string memory name, string memory symbol)\r\n        ERC721(name, symbol)\r\n    {}\r\n\r\n    function mint(\r\n        uint8 element,\r\n        uint256 damage,\r\n        uint256 defend,\r\n        uint256 endurance,\r\n        uint256 experience,\r\n        uint256 level,\r\n        uint8 isLock\r\n    ) public onlyOwner {\r\n        _safeMint(msg.sender, nextId);\r\n\r\n        _tokenDetails[nextId] = Pet(\r\n            nextId,\r\n            element,\r\n            damage,\r\n            defend,\r\n            block.timestamp,\r\n            endurance,\r\n            experience,\r\n            level,\r\n            isLock\r\n        );\r\n        nextId++;\r\n    }\r\n\r\n    function getTokenDetails(uint256 tokenId) public view returns (Pet memory) {\r\n        return _tokenDetails[tokenId];\r\n    }\r\n\r\n    function getAllTokens() public view returns (Pet[] memory) {\r\n        if (nextId == 0) {\r\n            return new Pet[](0);\r\n        } else {\r\n            Pet[] memory result = new Pet[](nextId);\r\n\r\n            for (uint256 index = 0; index < nextId; index++) {\r\n                result[index] = _tokenDetails[index];\r\n            }\r\n            return result;\r\n        }\r\n    }\r\n\r\n    function unLock(uint256 tokenId) public {\r\n        Pet storage pet = _tokenDetails[tokenId];\r\n        require(pet.isLock == 1);\r\n        pet.isLock = 0;\r\n        pet.lastMeal = block.timestamp;\r\n    }\r\n\r\n    function receiveExperience(uint256 tokenId, uint256 exp) public {\r\n        Pet storage pet = _tokenDetails[tokenId];\r\n        require(pet.isLock == 0);\r\n        pet.experience += exp;\r\n\r\n        while (true) {\r\n            if (pet.experience >= 100 * pet.level) {\r\n                pet.experience -= 100 * pet.level;\r\n                pet.level++;\r\n                pet.damage = 100 + pet.level * 20;\r\n                pet.defend = 100 + pet.level * 10;\r\n            } else {\r\n                break;\r\n            }\r\n        }\r\n    }\r\n\r\n    function feed(uint256 tokenId) public {\r\n        Pet storage pet = _tokenDetails[tokenId];\r\n        require(pet.isLock == 0);\r\n\r\n        if (block.timestamp < pet.lastMeal + pet.endurance) {\r\n            uint256 _exp = (block.timestamp - pet.lastMeal) / 60;\r\n            this.receiveExperience(tokenId, _exp);\r\n        }\r\n\r\n        pet.lastMeal = block.timestamp;\r\n    }\r\n\r\n    // function _beforeTokenTransfer(\r\n    //     address from,\r\n    //     address to,\r\n    //     uint256 tokenId\r\n    // ) internal override {\r\n    //     Pet storage pet = _tokenDetails[tokenId];\r\n    //     require(pet.lastMeal + pet.endurance > block.timestamp);\r\n    // }\r\n}\r\n",
  "sourcePath": "C:\\Users\\XV11\\Documents\\School\\CNM\\NTFGAME\\contracts\\Token.sol",
  "compiler": {
    "name": "solc",
    "version": "0.8.15+commit.e14f2714.Emscripten.clang"
  },
  "schemaVersion": "3.4.7",
  "updatedAt": "2022-07-09T06:54:58.066Z",
  "networkType": "ethereum",
  "devdoc": {
    "kind": "dev",
    "methods": {
      "approve(address,uint256)": {
        "details": "See {IERC721-approve}."
      },
      "balanceOf(address)": {
        "details": "See {IERC721-balanceOf}."
      },
      "getApproved(uint256)": {
        "details": "See {IERC721-getApproved}."
      },
      "isApprovedForAll(address,address)": {
        "details": "See {IERC721-isApprovedForAll}."
      },
      "name()": {
        "details": "See {IERC721Metadata-name}."
      },
      "owner()": {
        "details": "Returns the address of the current owner."
      },
      "ownerOf(uint256)": {
        "details": "See {IERC721-ownerOf}."
      },
      "renounceOwnership()": {
        "details": "Leaves the contract without owner. It will not be possible to call `onlyOwner` functions anymore. Can only be called by the current owner. NOTE: Renouncing ownership will leave the contract without an owner, thereby removing any functionality that is only available to the owner."
      },
      "safeTransferFrom(address,address,uint256)": {
        "details": "See {IERC721-safeTransferFrom}."
      },
      "safeTransferFrom(address,address,uint256,bytes)": {
        "details": "See {IERC721-safeTransferFrom}."
      },
      "setApprovalForAll(address,bool)": {
        "details": "See {IERC721-setApprovalForAll}."
      },
      "supportsInterface(bytes4)": {
        "details": "See {IERC165-supportsInterface}."
      },
      "symbol()": {
        "details": "See {IERC721Metadata-symbol}."
      },
      "tokenURI(uint256)": {
        "details": "See {IERC721Metadata-tokenURI}."
      },
      "transferFrom(address,address,uint256)": {
        "details": "See {IERC721-transferFrom}."
      },
      "transferOwnership(address)": {
        "details": "Transfers ownership of the contract to a new account (`newOwner`). Can only be called by the current owner."
      }
    },
    "version": 1
  },
  "userdoc": {
    "kind": "user",
    "methods": {},
    "version": 1
  }
}