{
  "contractName": "Token",
  "abi": [
    {
      "inputs": [
        {
          "internalType": "string",
          "name": "name",
          "type": "string"
        },
        {
          "internalType": "string",
          "name": "symbol",
          "type": "string"
        }
      ],
      "stateMutability": "nonpayable",
      "type": "constructor"
    },
    {
      "anonymous": false,
      "inputs": [
        {
          "indexed": true,
          "internalType": "address",
          "name": "owner",
          "type": "address"
        },
        {
          "indexed": true,
          "internalType": "address",
          "name": "approved",
          "type": "address"
        },
        {
          "indexed": true,
          "internalType": "uint256",
          "name": "tokenId",
          "type": "uint256"
        }
      ],
      "name": "Approval",
      "type": "event"
    },
    {
      "anonymous": false,
      "inputs": [
        {
          "indexed": true,
          "internalType": "address",
          "name": "owner",
          "type": "address"
        },
        {
          "indexed": true,
          "internalType": "address",
          "name": "operator",
          "type": "address"
        },
        {
          "indexed": false,
          "internalType": "bool",
          "name": "approved",
          "type": "bool"
        }
      ],
      "name": "ApprovalForAll",
      "type": "event"
    },
    {
      "anonymous": false,
      "inputs": [
        {
          "indexed": true,
          "internalType": "address",
          "name": "previousOwner",
          "type": "address"
        },
        {
          "indexed": true,
          "internalType": "address",
          "name": "newOwner",
          "type": "address"
        }
      ],
      "name": "OwnershipTransferred",
      "type": "event"
    },
    {
      "anonymous": false,
      "inputs": [
        {
          "indexed": true,
          "internalType": "address",
          "name": "from",
          "type": "address"
        },
        {
          "indexed": true,
          "internalType": "address",
          "name": "to",
          "type": "address"
        },
        {
          "indexed": true,
          "internalType": "uint256",
          "name": "tokenId",
          "type": "uint256"
        }
      ],
      "name": "Transfer",
      "type": "event"
    },
    {
      "inputs": [
        {
          "internalType": "address",
          "name": "to",
          "type": "address"
        },
        {
          "internalType": "uint256",
          "name": "tokenId",
          "type": "uint256"
        }
      ],
      "name": "approve",
      "outputs": [],
      "stateMutability": "nonpayable",
      "type": "function"
    },
    {
      "inputs": [
        {
          "internalType": "address",
          "name": "owner",
          "type": "address"
        }
      ],
      "name": "balanceOf",
      "outputs": [
        {
          "internalType": "uint256",
          "name": "",
          "type": "uint256"
        }
      ],
      "stateMutability": "view",
      "type": "function"
    },
    {
      "inputs": [
        {
          "internalType": "uint256",
          "name": "tokenId",
          "type": "uint256"
        }
      ],
      "name": "getApproved",
      "outputs": [
        {
          "internalType": "address",
          "name": "",
          "type": "address"
        }
      ],
      "stateMutability": "view",
      "type": "function"
    },
    {
      "inputs": [
        {
          "internalType": "address",
          "name": "owner",
          "type": "address"
        },
        {
          "internalType": "address",
          "name": "operator",
          "type": "address"
        }
      ],
      "name": "isApprovedForAll",
      "outputs": [
        {
          "internalType": "bool",
          "name": "",
          "type": "bool"
        }
      ],
      "stateMutability": "view",
      "type": "function"
    },
    {
      "inputs": [],
      "name": "name",
      "outputs": [
        {
          "internalType": "string",
          "name": "",
          "type": "string"
        }
      ],
      "stateMutability": "view",
      "type": "function"
    },
    {
      "inputs": [],
      "name": "owner",
      "outputs": [
        {
          "internalType": "address",
          "name": "",
          "type": "address"
        }
      ],
      "stateMutability": "view",
      "type": "function"
    },
    {
      "inputs": [
        {
          "internalType": "uint256",
          "name": "tokenId",
          "type": "uint256"
        }
      ],
      "name": "ownerOf",
      "outputs": [
        {
          "internalType": "address",
          "name": "",
          "type": "address"
        }
      ],
      "stateMutability": "view",
      "type": "function"
    },
    {
      "inputs": [],
      "name": "renounceOwnership",
      "outputs": [],
      "stateMutability": "nonpayable",
      "type": "function"
    },
    {
      "inputs": [
        {
          "internalType": "address",
          "name": "from",
          "type": "address"
        },
        {
          "internalType": "address",
          "name": "to",
          "type": "address"
        },
        {
          "internalType": "uint256",
          "name": "tokenId",
          "type": "uint256"
        }
      ],
      "name": "safeTransferFrom",
      "outputs": [],
      "stateMutability": "nonpayable",
      "type": "function"
    },
    {
      "inputs": [
        {
          "internalType": "address",
          "name": "from",
          "type": "address"
        },
        {
          "internalType": "address",
          "name": "to",
          "type": "address"
        },
        {
          "internalType": "uint256",
          "name": "tokenId",
          "type": "uint256"
        },
        {
          "internalType": "bytes",
          "name": "_data",
          "type": "bytes"
        }
      ],
      "name": "safeTransferFrom",
      "outputs": [],
      "stateMutability": "nonpayable",
      "type": "function"
    },
    {
      "inputs": [
        {
          "internalType": "address",
          "name": "operator",
          "type": "address"
        },
        {
          "internalType": "bool",
          "name": "approved",
          "type": "bool"
        }
      ],
      "name": "setApprovalForAll",
      "outputs": [],
      "stateMutability": "nonpayable",
      "type": "function"
    },
    {
      "inputs": [
        {
          "internalType": "bytes4",
          "name": "interfaceId",
          "type": "bytes4"
        }
      ],
      "name": "supportsInterface",
      "outputs": [
        {
          "internalType": "bool",
          "name": "",
          "type": "bool"
        }
      ],
      "stateMutability": "view",
      "type": "function"
    },
    {
      "inputs": [],
      "name": "symbol",
      "outputs": [
        {
          "internalType": "string",
          "name": "",
          "type": "string"
        }
      ],
      "stateMutability": "view",
      "type": "function"
    },
    {
      "inputs": [
        {
          "internalType": "uint256",
          "name": "tokenId",
          "type": "uint256"
        }
      ],
      "name": "tokenURI",
      "outputs": [
        {
          "internalType": "string",
          "name": "",
          "type": "string"
        }
      ],
      "stateMutability": "view",
      "type": "function"
    },
    {
      "inputs": [
        {
          "internalType": "address",
          "name": "from",
          "type": "address"
        },
        {
          "internalType": "address",
          "name": "to",
          "type": "address"
        },
        {
          "internalType": "uint256",
          "name": "tokenId",
          "type": "uint256"
        }
      ],
      "name": "transferFrom",
      "outputs": [],
      "stateMutability": "nonpayable",
      "type": "function"
    },
    {
      "inputs": [
        {
          "internalType": "address",
          "name": "newOwner",
          "type": "address"
        }
      ],
      "name": "transferOwnership",
      "outputs": [],
      "stateMutability": "nonpayable",
      "type": "function"
    },
    {
      "inputs": [
        {
          "internalType": "uint256",
          "name": "tokenId",
          "type": "uint256"
        }
      ],
      "name": "getTokenDetails",
      "outputs": [
        {
          "components": [
            {
              "internalType": "uint8",
              "name": "damage",
              "type": "uint8"
            },
            {
              "internalType": "uint8",
              "name": "magic",
              "type": "uint8"
            },
            {
              "internalType": "uint256",
              "name": "lastMeal",
              "type": "uint256"
            },
            {
              "internalType": "uint256",
              "name": "endurance",
              "type": "uint256"
            }
          ],
          "internalType": "struct Token.Pet",
          "name": "",
          "type": "tuple"
        }
      ],
      "stateMutability": "view",
      "type": "function"
    },
    {
      "inputs": [
        {
          "internalType": "uint8",
          "name": "damage",
          "type": "uint8"
        },
        {
          "internalType": "uint8",
          "name": "magic",
          "type": "uint8"
        },
        {
          "internalType": "uint256",
          "name": "endurance",
          "type": "uint256"
        }
      ],
      "name": "mint",
      "outputs": [],
      "stateMutability": "nonpayable",
      "type": "function"
    },
    {
      "inputs": [
        {
          "internalType": "uint256",
          "name": "tokenId",
          "type": "uint256"
        }
      ],
      "name": "feed",
      "outputs": [],
      "stateMutability": "nonpayable",
      "type": "function"
    }
  ],
  "bytecode": "0x608060405260006007553480156200001657600080fd5b50604051620035a4380380620035a483398181016040528101906200003c9190620002f7565b818181600090816200004f9190620005c7565b508060019081620000619190620005c7565b50505062000084620000786200008c60201b60201c565b6200009460201b60201c565b5050620006ae565b600033905090565b6000600660009054906101000a900473ffffffffffffffffffffffffffffffffffffffff16905081600660006101000a81548173ffffffffffffffffffffffffffffffffffffffff021916908373ffffffffffffffffffffffffffffffffffffffff1602179055508173ffffffffffffffffffffffffffffffffffffffff168173ffffffffffffffffffffffffffffffffffffffff167f8be0079c531659141344cd1fd0a4f28419497f9722a3daafe3b4186f6b6457e060405160405180910390a35050565b6000604051905090565b600080fd5b600080fd5b600080fd5b600080fd5b6000601f19601f8301169050919050565b7f4e487b7100000000000000000000000000000000000000000000000000000000600052604160045260246000fd5b620001c38262000178565b810181811067ffffffffffffffff82111715620001e557620001e462000189565b5b80604052505050565b6000620001fa6200015a565b9050620002088282620001b8565b919050565b600067ffffffffffffffff8211156200022b576200022a62000189565b5b620002368262000178565b9050602081019050919050565b60005b838110156200026357808201518184015260208101905062000246565b8381111562000273576000848401525b50505050565b6000620002906200028a846200020d565b620001ee565b905082815260208101848484011115620002af57620002ae62000173565b5b620002bc84828562000243565b509392505050565b600082601f830112620002dc57620002db6200016e565b5b8151620002ee84826020860162000279565b91505092915050565b6000806040838503121562000311576200031062000164565b5b600083015167ffffffffffffffff81111562000332576200033162000169565b5b6200034085828601620002c4565b925050602083015167ffffffffffffffff81111562000364576200036362000169565b5b6200037285828601620002c4565b9150509250929050565b600081519050919050565b7f4e487b7100000000000000000000000000000000000000000000000000000000600052602260045260246000fd5b60006002820490506001821680620003cf57607f821691505b602082108103620003e557620003e462000387565b5b50919050565b60008190508160005260206000209050919050565b60006020601f8301049050919050565b600082821b905092915050565b6000600883026200044f7fffffffffffffffffffffffffffffffffffffffffffffffffffffffffffffffff8262000410565b6200045b868362000410565b95508019841693508086168417925050509392505050565b6000819050919050565b6000819050919050565b6000620004a8620004a26200049c8462000473565b6200047d565b62000473565b9050919050565b6000819050919050565b620004c48362000487565b620004dc620004d382620004af565b8484546200041d565b825550505050565b600090565b620004f3620004e4565b62000500818484620004b9565b505050565b5b8181101562000528576200051c600082620004e9565b60018101905062000506565b5050565b601f82111562000577576200054181620003eb565b6200054c8462000400565b810160208510156200055c578190505b620005746200056b8562000400565b83018262000505565b50505b505050565b600082821c905092915050565b60006200059c600019846008026200057c565b1980831691505092915050565b6000620005b7838362000589565b9150826002028217905092915050565b620005d2826200037c565b67ffffffffffffffff811115620005ee57620005ed62000189565b5b620005fa8254620003b6565b620006078282856200052c565b600060209050601f8311600181146200063f57600084156200062a578287015190505b620006368582620005a9565b865550620006a6565b601f1984166200064f86620003eb565b60005b82811015620006795784890151825560018201915060208501945060208101905062000652565b8683101562000699578489015162000695601f89168262000589565b8355505b6001600288020188555050505b505050505050565b612ee680620006be6000396000f3fe608060405234801561001057600080fd5b50600436106101215760003560e01c80638da5cb5b116100ad578063c87b56dd11610071578063c87b56dd14610306578063e985e9c514610336578063eb22ed3214610366578063f2fde38b14610382578063f59dfdfb1461039e57610121565b80638da5cb5b1461026257806395d89b4114610280578063a22cb4651461029e578063b88d4fde146102ba578063c1e03728146102d657610121565b806323b872dd116100f457806323b872dd146101c057806342842e0e146101dc5780636352211e146101f857806370a0823114610228578063715018a61461025857610121565b806301ffc9a71461012657806306fdde0314610156578063081812fc14610174578063095ea7b3146101a4575b600080fd5b610140600480360381019061013b9190611c53565b6103ba565b60405161014d9190611c9b565b60405180910390f35b61015e61049c565b60405161016b9190611d4f565b60405180910390f35b61018e60048036038101906101899190611da7565b61052e565b60405161019b9190611e15565b60405180910390f35b6101be60048036038101906101b99190611e5c565b6105b3565b005b6101da60048036038101906101d59190611e9c565b6106ca565b005b6101f660048036038101906101f19190611e9c565b61072a565b005b610212600480360381019061020d9190611da7565b61074a565b60405161021f9190611e15565b60405180910390f35b610242600480360381019061023d9190611eef565b6107fb565b60405161024f9190611f2b565b60405180910390f35b6102606108b2565b005b61026a61093a565b6040516102779190611e15565b60405180910390f35b610288610964565b6040516102959190611d4f565b60405180910390f35b6102b860048036038101906102b39190611f72565b6109f6565b005b6102d460048036038101906102cf91906120e7565b610a0c565b005b6102f060048036038101906102eb9190611da7565b610a6e565b6040516102fd91906121ea565b60405180910390f35b610320600480360381019061031b9190611da7565b610ae9565b60405161032d9190611d4f565b60405180910390f35b610350600480360381019061034b9190612205565b610b90565b60405161035d9190611c9b565b60405180910390f35b610380600480360381019061037b9190612271565b610c24565b005b61039c60048036038101906103979190611eef565b610d5e565b005b6103b860048036038101906103b39190611da7565b610e55565b005b60007f80ac58cd000000000000000000000000000000000000000000000000000000007bffffffffffffffffffffffffffffffffffffffffffffffffffffffff1916827bffffffffffffffffffffffffffffffffffffffffffffffffffffffff1916148061048557507f5b5e139f000000000000000000000000000000000000000000000000000000007bffffffffffffffffffffffffffffffffffffffffffffffffffffffff1916827bffffffffffffffffffffffffffffffffffffffffffffffffffffffff1916145b80610495575061049482610e9a565b5b9050919050565b6060600080546104ab906122f3565b80601f01602080910402602001604051908101604052809291908181526020018280546104d7906122f3565b80156105245780601f106104f957610100808354040283529160200191610524565b820191906000526020600020905b81548152906001019060200180831161050757829003601f168201915b5050505050905090565b600061053982610f04565b610578576040517f08c379a000000000000000000000000000000000000000000000000000000000815260040161056f90612396565b60405180910390fd5b6004600083815260200190815260200160002060009054906101000a900473ffffffffffffffffffffffffffffffffffffffff169050919050565b60006105be8261074a565b90508073ffffffffffffffffffffffffffffffffffffffff168373ffffffffffffffffffffffffffffffffffffffff160361062e576040517f08c379a000000000000000000000000000000000000000000000000000000000815260040161062590612428565b60405180910390fd5b8073ffffffffffffffffffffffffffffffffffffffff1661064d610f70565b73ffffffffffffffffffffffffffffffffffffffff16148061067c575061067b81610676610f70565b610b90565b5b6106bb576040517f08c379a00000000000000000000000000000000000000000000000000000000081526004016106b2906124ba565b60405180910390fd5b6106c58383610f78565b505050565b6106db6106d5610f70565b82611031565b61071a576040517f08c379a00000000000000000000000000000000000000000000000000000000081526004016107119061254c565b60405180910390fd5b61072583838361110f565b505050565b61074583838360405180602001604052806000815250610a0c565b505050565b6000806002600084815260200190815260200160002060009054906101000a900473ffffffffffffffffffffffffffffffffffffffff169050600073ffffffffffffffffffffffffffffffffffffffff168173ffffffffffffffffffffffffffffffffffffffff16036107f2576040517f08c379a00000000000000000000000000000000000000000000000000000000081526004016107e9906125de565b60405180910390fd5b80915050919050565b60008073ffffffffffffffffffffffffffffffffffffffff168273ffffffffffffffffffffffffffffffffffffffff160361086b576040517f08c379a000000000000000000000000000000000000000000000000000000000815260040161086290612670565b60405180910390fd5b600360008373ffffffffffffffffffffffffffffffffffffffff1673ffffffffffffffffffffffffffffffffffffffff168152602001908152602001600020549050919050565b6108ba610f70565b73ffffffffffffffffffffffffffffffffffffffff166108d861093a565b73ffffffffffffffffffffffffffffffffffffffff161461092e576040517f08c379a0000000000000000000000000000000000000000000000000000000008152600401610925906126dc565b60405180910390fd5b6109386000611375565b565b6000600660009054906101000a900473ffffffffffffffffffffffffffffffffffffffff16905090565b606060018054610973906122f3565b80601f016020809104026020016040519081016040528092919081815260200182805461099f906122f3565b80156109ec5780601f106109c1576101008083540402835291602001916109ec565b820191906000526020600020905b8154815290600101906020018083116109cf57829003601f168201915b5050505050905090565b610a08610a01610f70565b838361143b565b5050565b610a1d610a17610f70565b83611031565b610a5c576040517f08c379a0000000000000000000000000000000000000000000000000000000008152600401610a539061254c565b60405180910390fd5b610a68848484846115a7565b50505050565b610a76611bb9565b600860008381526020019081526020016000206040518060800160405290816000820160009054906101000a900460ff1660ff1660ff1681526020016000820160019054906101000a900460ff1660ff1660ff168152602001600182015481526020016002820154815250509050919050565b6060610af482610f04565b610b33576040517f08c379a0000000000000000000000000000000000000000000000000000000008152600401610b2a9061276e565b60405180910390fd5b6000610b3d611603565b90506000815111610b5d5760405180602001604052806000815250610b88565b80610b678461161a565b604051602001610b789291906127ca565b6040516020818303038152906040525b915050919050565b6000600560008473ffffffffffffffffffffffffffffffffffffffff1673ffffffffffffffffffffffffffffffffffffffff16815260200190815260200160002060008373ffffffffffffffffffffffffffffffffffffffff1673ffffffffffffffffffffffffffffffffffffffff16815260200190815260200160002060009054906101000a900460ff16905092915050565b610c2c610f70565b73ffffffffffffffffffffffffffffffffffffffff16610c4a61093a565b73ffffffffffffffffffffffffffffffffffffffff1614610ca0576040517f08c379a0000000000000000000000000000000000000000000000000000000008152600401610c97906126dc565b60405180910390fd5b610cac3360075461177a565b60405180608001604052808460ff1681526020018360ff1681526020014281526020018281525060086000600754815260200190815260200160002060008201518160000160006101000a81548160ff021916908360ff16021790555060208201518160000160016101000a81548160ff021916908360ff160217905550604082015181600101556060820151816002015590505060076000815480929190610d549061281d565b9190505550505050565b610d66610f70565b73ffffffffffffffffffffffffffffffffffffffff16610d8461093a565b73ffffffffffffffffffffffffffffffffffffffff1614610dda576040517f08c379a0000000000000000000000000000000000000000000000000000000008152600401610dd1906126dc565b60405180910390fd5b600073ffffffffffffffffffffffffffffffffffffffff168173ffffffffffffffffffffffffffffffffffffffff1603610e49576040517f08c379a0000000000000000000000000000000000000000000000000000000008152600401610e40906128d7565b60405180910390fd5b610e5281611375565b50565b600060086000600754815260200190815260200160002090504281600201548260010154610e8391906128f7565b11610e8d57600080fd5b4281600101819055505050565b60007f01ffc9a7000000000000000000000000000000000000000000000000000000007bffffffffffffffffffffffffffffffffffffffffffffffffffffffff1916827bffffffffffffffffffffffffffffffffffffffffffffffffffffffff1916149050919050565b60008073ffffffffffffffffffffffffffffffffffffffff166002600084815260200190815260200160002060009054906101000a900473ffffffffffffffffffffffffffffffffffffffff1673ffffffffffffffffffffffffffffffffffffffff1614159050919050565b600033905090565b816004600083815260200190815260200160002060006101000a81548173ffffffffffffffffffffffffffffffffffffffff021916908373ffffffffffffffffffffffffffffffffffffffff160217905550808273ffffffffffffffffffffffffffffffffffffffff16610feb8361074a565b73ffffffffffffffffffffffffffffffffffffffff167f8c5be1e5ebec7d5bd14f71427d1e84f3dd0314c0f7b2291e5b200ac8c7c3b92560405160405180910390a45050565b600061103c82610f04565b61107b576040517f08c379a0000000000000000000000000000000000000000000000000000000008152600401611072906129bf565b60405180910390fd5b60006110868361074a565b90508073ffffffffffffffffffffffffffffffffffffffff168473ffffffffffffffffffffffffffffffffffffffff1614806110c857506110c78185610b90565b5b8061110657508373ffffffffffffffffffffffffffffffffffffffff166110ee8461052e565b73ffffffffffffffffffffffffffffffffffffffff16145b91505092915050565b8273ffffffffffffffffffffffffffffffffffffffff1661112f8261074a565b73ffffffffffffffffffffffffffffffffffffffff1614611185576040517f08c379a000000000000000000000000000000000000000000000000000000000815260040161117c90612a51565b60405180910390fd5b600073ffffffffffffffffffffffffffffffffffffffff168273ffffffffffffffffffffffffffffffffffffffff16036111f4576040517f08c379a00000000000000000000000000000000000000000000000000000000081526004016111eb90612ae3565b60405180910390fd5b6111ff838383611798565b61120a600082610f78565b6001600360008573ffffffffffffffffffffffffffffffffffffffff1673ffffffffffffffffffffffffffffffffffffffff168152602001908152602001600020600082825461125a9190612b03565b925050819055506001600360008473ffffffffffffffffffffffffffffffffffffffff1673ffffffffffffffffffffffffffffffffffffffff16815260200190815260200160002060008282546112b191906128f7565b92505081905550816002600083815260200190815260200160002060006101000a81548173ffffffffffffffffffffffffffffffffffffffff021916908373ffffffffffffffffffffffffffffffffffffffff160217905550808273ffffffffffffffffffffffffffffffffffffffff168473ffffffffffffffffffffffffffffffffffffffff167fddf252ad1be2c89b69c2b068fc378daa952ba7f163c4a11628f55a4df523b3ef60405160405180910390a46113708383836117d6565b505050565b6000600660009054906101000a900473ffffffffffffffffffffffffffffffffffffffff16905081600660006101000a81548173ffffffffffffffffffffffffffffffffffffffff021916908373ffffffffffffffffffffffffffffffffffffffff1602179055508173ffffffffffffffffffffffffffffffffffffffff168173ffffffffffffffffffffffffffffffffffffffff167f8be0079c531659141344cd1fd0a4f28419497f9722a3daafe3b4186f6b6457e060405160405180910390a35050565b8173ffffffffffffffffffffffffffffffffffffffff168373ffffffffffffffffffffffffffffffffffffffff16036114a9576040517f08c379a00000000000000000000000000000000000000000000000000000000081526004016114a090612b83565b60405180910390fd5b80600560008573ffffffffffffffffffffffffffffffffffffffff1673ffffffffffffffffffffffffffffffffffffffff16815260200190815260200160002060008473ffffffffffffffffffffffffffffffffffffffff1673ffffffffffffffffffffffffffffffffffffffff16815260200190815260200160002060006101000a81548160ff0219169083151502179055508173ffffffffffffffffffffffffffffffffffffffff168373ffffffffffffffffffffffffffffffffffffffff167f17307eab39ab6107e8899845ad3d59bd9653f200f220920489ca2b5937696c318360405161159a9190611c9b565b60405180910390a3505050565b6115b284848461110f565b6115be848484846117db565b6115fd576040517f08c379a00000000000000000000000000000000000000000000000000000000081526004016115f490612c15565b60405180910390fd5b50505050565b606060405180602001604052806000815250905090565b606060008203611661576040518060400160405280600181526020017f30000000000000000000000000000000000000000000000000000000000000008152509050611775565b600082905060005b6000821461169357808061167c9061281d565b915050600a8261168c9190612c64565b9150611669565b60008167ffffffffffffffff8111156116af576116ae611fbc565b5b6040519080825280601f01601f1916602001820160405280156116e15781602001600182028036833780820191505090505b5090505b6000851461176e576001826116fa9190612b03565b9150600a856117099190612c95565b603061171591906128f7565b60f81b81838151811061172b5761172a612cc6565b5b60200101907effffffffffffffffffffffffffffffffffffffffffffffffffffffffffffff1916908160001a905350600a856117679190612c64565b94506116e5565b8093505050505b919050565b611794828260405180602001604052806000815250611962565b5050565b6000600860006007548152602001908152602001600020905042816002015482600101546117c691906128f7565b116117d057600080fd5b50505050565b505050565b60006117fc8473ffffffffffffffffffffffffffffffffffffffff166119bd565b15611955578373ffffffffffffffffffffffffffffffffffffffff1663150b7a02611825610f70565b8786866040518563ffffffff1660e01b81526004016118479493929190612d4a565b6020604051808303816000875af192505050801561188357506040513d601f19601f820116820180604052508101906118809190612dab565b60015b611905573d80600081146118b3576040519150601f19603f3d011682016040523d82523d6000602084013e6118b8565b606091505b5060008151036118fd576040517f08c379a00000000000000000000000000000000000000000000000000000000081526004016118f490612c15565b60405180910390fd5b805181602001fd5b63150b7a0260e01b7bffffffffffffffffffffffffffffffffffffffffffffffffffffffff1916817bffffffffffffffffffffffffffffffffffffffffffffffffffffffff19161491505061195a565b600190505b949350505050565b61196c83836119e0565b61197960008484846117db565b6119b8576040517f08c379a00000000000000000000000000000000000000000000000000000000081526004016119af90612c15565b60405180910390fd5b505050565b6000808273ffffffffffffffffffffffffffffffffffffffff163b119050919050565b600073ffffffffffffffffffffffffffffffffffffffff168273ffffffffffffffffffffffffffffffffffffffff1603611a4f576040517f08c379a0000000000000000000000000000000000000000000000000000000008152600401611a4690612e24565b60405180910390fd5b611a5881610f04565b15611a98576040517f08c379a0000000000000000000000000000000000000000000000000000000008152600401611a8f90612e90565b60405180910390fd5b611aa460008383611798565b6001600360008473ffffffffffffffffffffffffffffffffffffffff1673ffffffffffffffffffffffffffffffffffffffff1681526020019081526020016000206000828254611af491906128f7565b92505081905550816002600083815260200190815260200160002060006101000a81548173ffffffffffffffffffffffffffffffffffffffff021916908373ffffffffffffffffffffffffffffffffffffffff160217905550808273ffffffffffffffffffffffffffffffffffffffff16600073ffffffffffffffffffffffffffffffffffffffff167fddf252ad1be2c89b69c2b068fc378daa952ba7f163c4a11628f55a4df523b3ef60405160405180910390a4611bb5600083836117d6565b5050565b6040518060800160405280600060ff168152602001600060ff16815260200160008152602001600081525090565b6000604051905090565b600080fd5b600080fd5b60007fffffffff0000000000000000000000000000000000000000000000000000000082169050919050565b611c3081611bfb565b8114611c3b57600080fd5b50565b600081359050611c4d81611c27565b92915050565b600060208284031215611c6957611c68611bf1565b5b6000611c7784828501611c3e565b91505092915050565b60008115159050919050565b611c9581611c80565b82525050565b6000602082019050611cb06000830184611c8c565b92915050565b600081519050919050565b600082825260208201905092915050565b60005b83811015611cf0578082015181840152602081019050611cd5565b83811115611cff576000848401525b50505050565b6000601f19601f8301169050919050565b6000611d2182611cb6565b611d2b8185611cc1565b9350611d3b818560208601611cd2565b611d4481611d05565b840191505092915050565b60006020820190508181036000830152611d698184611d16565b905092915050565b6000819050919050565b611d8481611d71565b8114611d8f57600080fd5b50565b600081359050611da181611d7b565b92915050565b600060208284031215611dbd57611dbc611bf1565b5b6000611dcb84828501611d92565b91505092915050565b600073ffffffffffffffffffffffffffffffffffffffff82169050919050565b6000611dff82611dd4565b9050919050565b611e0f81611df4565b82525050565b6000602082019050611e2a6000830184611e06565b92915050565b611e3981611df4565b8114611e4457600080fd5b50565b600081359050611e5681611e30565b92915050565b60008060408385031215611e7357611e72611bf1565b5b6000611e8185828601611e47565b9250506020611e9285828601611d92565b9150509250929050565b600080600060608486031215611eb557611eb4611bf1565b5b6000611ec386828701611e47565b9350506020611ed486828701611e47565b9250506040611ee586828701611d92565b9150509250925092565b600060208284031215611f0557611f04611bf1565b5b6000611f1384828501611e47565b91505092915050565b611f2581611d71565b82525050565b6000602082019050611f406000830184611f1c565b92915050565b611f4f81611c80565b8114611f5a57600080fd5b50565b600081359050611f6c81611f46565b92915050565b60008060408385031215611f8957611f88611bf1565b5b6000611f9785828601611e47565b9250506020611fa885828601611f5d565b9150509250929050565b600080fd5b600080fd5b7f4e487b7100000000000000000000000000000000000000000000000000000000600052604160045260246000fd5b611ff482611d05565b810181811067ffffffffffffffff8211171561201357612012611fbc565b5b80604052505050565b6000612026611be7565b90506120328282611feb565b919050565b600067ffffffffffffffff82111561205257612051611fbc565b5b61205b82611d05565b9050602081019050919050565b82818337600083830152505050565b600061208a61208584612037565b61201c565b9050828152602081018484840111156120a6576120a5611fb7565b5b6120b1848285612068565b509392505050565b600082601f8301126120ce576120cd611fb2565b5b81356120de848260208601612077565b91505092915050565b6000806000806080858703121561210157612100611bf1565b5b600061210f87828801611e47565b945050602061212087828801611e47565b935050604061213187828801611d92565b925050606085013567ffffffffffffffff81111561215257612151611bf6565b5b61215e878288016120b9565b91505092959194509250565b600060ff82169050919050565b6121808161216a565b82525050565b61218f81611d71565b82525050565b6080820160008201516121ab6000850182612177565b5060208201516121be6020850182612177565b5060408201516121d16040850182612186565b5060608201516121e46060850182612186565b50505050565b60006080820190506121ff6000830184612195565b92915050565b6000806040838503121561221c5761221b611bf1565b5b600061222a85828601611e47565b925050602061223b85828601611e47565b9150509250929050565b61224e8161216a565b811461225957600080fd5b50565b60008135905061226b81612245565b92915050565b60008060006060848603121561228a57612289611bf1565b5b60006122988682870161225c565b93505060206122a98682870161225c565b92505060406122ba86828701611d92565b9150509250925092565b7f4e487b7100000000000000000000000000000000000000000000000000000000600052602260045260246000fd5b6000600282049050600182168061230b57607f821691505b60208210810361231e5761231d6122c4565b5b50919050565b7f4552433732313a20617070726f76656420717565727920666f72206e6f6e657860008201527f697374656e7420746f6b656e0000000000000000000000000000000000000000602082015250565b6000612380602c83611cc1565b915061238b82612324565b604082019050919050565b600060208201905081810360008301526123af81612373565b9050919050565b7f4552433732313a20617070726f76616c20746f2063757272656e74206f776e6560008201527f7200000000000000000000000000000000000000000000000000000000000000602082015250565b6000612412602183611cc1565b915061241d826123b6565b604082019050919050565b6000602082019050818103600083015261244181612405565b9050919050565b7f4552433732313a20617070726f76652063616c6c6572206973206e6f74206f7760008201527f6e6572206e6f7220617070726f76656420666f7220616c6c0000000000000000602082015250565b60006124a4603883611cc1565b91506124af82612448565b604082019050919050565b600060208201905081810360008301526124d381612497565b9050919050565b7f4552433732313a207472616e736665722063616c6c6572206973206e6f74206f60008201527f776e6572206e6f7220617070726f766564000000000000000000000000000000602082015250565b6000612536603183611cc1565b9150612541826124da565b604082019050919050565b6000602082019050818103600083015261256581612529565b9050919050565b7f4552433732313a206f776e657220717565727920666f72206e6f6e657869737460008201527f656e7420746f6b656e0000000000000000000000000000000000000000000000602082015250565b60006125c8602983611cc1565b91506125d38261256c565b604082019050919050565b600060208201905081810360008301526125f7816125bb565b9050919050565b7f4552433732313a2062616c616e636520717565727920666f7220746865207a6560008201527f726f206164647265737300000000000000000000000000000000000000000000602082015250565b600061265a602a83611cc1565b9150612665826125fe565b604082019050919050565b600060208201905081810360008301526126898161264d565b9050919050565b7f4f776e61626c653a2063616c6c6572206973206e6f7420746865206f776e6572600082015250565b60006126c6602083611cc1565b91506126d182612690565b602082019050919050565b600060208201905081810360008301526126f5816126b9565b9050919050565b7f4552433732314d657461646174613a2055524920717565727920666f72206e6f60008201527f6e6578697374656e7420746f6b656e0000000000000000000000000000000000602082015250565b6000612758602f83611cc1565b9150612763826126fc565b604082019050919050565b600060208201905081810360008301526127878161274b565b9050919050565b600081905092915050565b60006127a482611cb6565b6127ae818561278e565b93506127be818560208601611cd2565b80840191505092915050565b60006127d68285612799565b91506127e28284612799565b91508190509392505050565b7f4e487b7100000000000000000000000000000000000000000000000000000000600052601160045260246000fd5b600061282882611d71565b91507fffffffffffffffffffffffffffffffffffffffffffffffffffffffffffffffff820361285a576128596127ee565b5b600182019050919050565b7f4f776e61626c653a206e6577206f776e657220697320746865207a65726f206160008201527f6464726573730000000000000000000000000000000000000000000000000000602082015250565b60006128c1602683611cc1565b91506128cc82612865565b604082019050919050565b600060208201905081810360008301526128f0816128b4565b9050919050565b600061290282611d71565b915061290d83611d71565b9250827fffffffffffffffffffffffffffffffffffffffffffffffffffffffffffffffff03821115612942576129416127ee565b5b828201905092915050565b7f4552433732313a206f70657261746f7220717565727920666f72206e6f6e657860008201527f697374656e7420746f6b656e0000000000000000000000000000000000000000602082015250565b60006129a9602c83611cc1565b91506129b48261294d565b604082019050919050565b600060208201905081810360008301526129d88161299c565b9050919050565b7f4552433732313a207472616e736665722066726f6d20696e636f72726563742060008201527f6f776e6572000000000000000000000000000000000000000000000000000000602082015250565b6000612a3b602583611cc1565b9150612a46826129df565b604082019050919050565b60006020820190508181036000830152612a6a81612a2e565b9050919050565b7f4552433732313a207472616e7366657220746f20746865207a65726f2061646460008201527f7265737300000000000000000000000000000000000000000000000000000000602082015250565b6000612acd602483611cc1565b9150612ad882612a71565b604082019050919050565b60006020820190508181036000830152612afc81612ac0565b9050919050565b6000612b0e82611d71565b9150612b1983611d71565b925082821015612b2c57612b2b6127ee565b5b828203905092915050565b7f4552433732313a20617070726f766520746f2063616c6c657200000000000000600082015250565b6000612b6d601983611cc1565b9150612b7882612b37565b602082019050919050565b60006020820190508181036000830152612b9c81612b60565b9050919050565b7f4552433732313a207472616e7366657220746f206e6f6e20455243373231526560008201527f63656976657220696d706c656d656e7465720000000000000000000000000000602082015250565b6000612bff603283611cc1565b9150612c0a82612ba3565b604082019050919050565b60006020820190508181036000830152612c2e81612bf2565b9050919050565b7f4e487b7100000000000000000000000000000000000000000000000000000000600052601260045260246000fd5b6000612c6f82611d71565b9150612c7a83611d71565b925082612c8a57612c89612c35565b5b828204905092915050565b6000612ca082611d71565b9150612cab83611d71565b925082612cbb57612cba612c35565b5b828206905092915050565b7f4e487b7100000000000000000000000000000000000000000000000000000000600052603260045260246000fd5b600081519050919050565b600082825260208201905092915050565b6000612d1c82612cf5565b612d268185612d00565b9350612d36818560208601611cd2565b612d3f81611d05565b840191505092915050565b6000608082019050612d5f6000830187611e06565b612d6c6020830186611e06565b612d796040830185611f1c565b8181036060830152612d8b8184612d11565b905095945050505050565b600081519050612da581611c27565b92915050565b600060208284031215612dc157612dc0611bf1565b5b6000612dcf84828501612d96565b91505092915050565b7f4552433732313a206d696e7420746f20746865207a65726f2061646472657373600082015250565b6000612e0e602083611cc1565b9150612e1982612dd8565b602082019050919050565b60006020820190508181036000830152612e3d81612e01565b9050919050565b7f4552433732313a20746f6b656e20616c7265616479206d696e74656400000000600082015250565b6000612e7a601c83611cc1565b9150612e8582612e44565b602082019050919050565b60006020820190508181036000830152612ea981612e6d565b905091905056fea2646970667358221220e6317d5c0258b2afed8696af239a8a2542d37360726d06263187265a9c46ea6864736f6c634300080f0033",
  "immutableReferences": {},
  "source": "pragma solidity 0.8.15;\r\n\r\nimport \"../node_modules/@openzeppelin/contracts/token/ERC721/ERC721.sol\";\r\nimport \"../node_modules/@openzeppelin/contracts/access/Ownable.sol\";\r\n\r\ncontract Token is ERC721, Ownable {\r\n    struct Pet {\r\n        uint8 damage;\r\n        uint8 magic;\r\n        uint256 lastMeal;\r\n        uint256 endurance;\r\n    }\r\n\r\n    uint256 nextId = 0;\r\n\r\n    mapping(uint256 => Pet) private _tokenDetails;\r\n\r\n    constructor(string memory name, string memory symbol)\r\n        ERC721(name, symbol)\r\n    {}\r\n\r\n    function getTokenDetails(uint256 tokenId) public view returns (Pet memory) {\r\n        return _tokenDetails[tokenId];\r\n    }\r\n\r\n    function mint(\r\n        uint8 damage,\r\n        uint8 magic,\r\n        uint256 endurance\r\n    ) public onlyOwner {\r\n        _safeMint(msg.sender, nextId);\r\n\r\n        _tokenDetails[nextId] = Pet(damage, magic, block.timestamp, endurance);\r\n        nextId++;\r\n    }\r\n\r\n    function feed(uint256 tokenId) public {\r\n        Pet storage pet = _tokenDetails[nextId];\r\n        require(pet.lastMeal + pet.endurance > block.timestamp);\r\n        pet.lastMeal = block.timestamp;\r\n    }\r\n\r\n    function _beforeTokenTransfer(\r\n        address from,\r\n        address to,\r\n        uint256 tokenId\r\n    ) internal override {\r\n        Pet storage pet = _tokenDetails[nextId];\r\n        require(pet.lastMeal + pet.endurance > block.timestamp);\r\n    }\r\n}\r\n",
  "sourcePath": "C:\\Users\\XV11\\Documents\\School\\CNM\\NTFGAME\\contracts\\Token.sol",
  "compiler": {
    "name": "solc",
    "version": "0.8.15+commit.e14f2714.Emscripten.clang"
  },
  "schemaVersion": "3.4.7",
  "updatedAt": "2022-06-26T15:29:46.798Z",
  "devdoc": {
    "kind": "dev",
    "methods": {
      "approve(address,uint256)": {
        "details": "See {IERC721-approve}."
      },
      "balanceOf(address)": {
        "details": "See {IERC721-balanceOf}."
      },
      "getApproved(uint256)": {
        "details": "See {IERC721-getApproved}."
      },
      "isApprovedForAll(address,address)": {
        "details": "See {IERC721-isApprovedForAll}."
      },
      "name()": {
        "details": "See {IERC721Metadata-name}."
      },
      "owner()": {
        "details": "Returns the address of the current owner."
      },
      "ownerOf(uint256)": {
        "details": "See {IERC721-ownerOf}."
      },
      "renounceOwnership()": {
        "details": "Leaves the contract without owner. It will not be possible to call `onlyOwner` functions anymore. Can only be called by the current owner. NOTE: Renouncing ownership will leave the contract without an owner, thereby removing any functionality that is only available to the owner."
      },
      "safeTransferFrom(address,address,uint256)": {
        "details": "See {IERC721-safeTransferFrom}."
      },
      "safeTransferFrom(address,address,uint256,bytes)": {
        "details": "See {IERC721-safeTransferFrom}."
      },
      "setApprovalForAll(address,bool)": {
        "details": "See {IERC721-setApprovalForAll}."
      },
      "supportsInterface(bytes4)": {
        "details": "See {IERC165-supportsInterface}."
      },
      "symbol()": {
        "details": "See {IERC721Metadata-symbol}."
      },
      "tokenURI(uint256)": {
        "details": "See {IERC721Metadata-tokenURI}."
      },
      "transferFrom(address,address,uint256)": {
        "details": "See {IERC721-transferFrom}."
      },
      "transferOwnership(address)": {
        "details": "Transfers ownership of the contract to a new account (`newOwner`). Can only be called by the current owner."
      }
    },
    "version": 1
  },
  "userdoc": {
    "kind": "user",
    "methods": {},
    "version": 1
  }
}